:020000040800F2
:1000000000000120ED2E0008ED060008F1060008B2
:10001000F5060008F9060008FD06000800000000CB
:1000200000000000000000000000000001070008C0
:100030000507000800000000090700080D07000878
:100040003D2F00083D2F00083D2F00083D2F0008E0
:100050003D2F00083D2F00083D2F00083D2F0008D0
:100060003D2F00083D2F00083D2F00083D2F0008C0
:100070003D2F00083D2F00083D2F00083D2F0008B0
:100080003D2F00083D2F00083D2F00080000000014
:100090000000000000000000000000003D2F0008EC
:1000A0003D2F00083D2F00083D2F00083D2F000880
:1000B0003D2F00083D2F00083D2F000815070008C0
:1000C000250700083D2F00083D2F00083D2F0008A0
:1000D0003D2F00083D2F00083D2F000800000000C4
:1000E0003D2F00083D2F00083D2F000800000000B4
:1000F0000000000000000000000000003D2F00088C
:10010000000000003D2F00083D2F00083D2F000893
:1001100000000000000000000000000000000000DF
:100120003D2F00083D2F00083D2F00083D2F0008FF
:100130003D2F00080000000000000000000000004B
:100140000000000000000000000000003D2F00083B
:100150003D2F00083D2F00083D2F00083D2F0008CF
:100160003D2F00083D2F00080000000000000000A7
:10017000000000000000000000000000000000007F
:10018000000000003D2F00080000000000000000FB
:040190003D2F0008F7
:1001940010B5054C237833B9044B13B10448AFF3BD
:1001A40000800123237010BD240000200000000003
:1001B4009C2F0008084B10B51BB108490848AFF341
:1001C40000800848036803B910BD074B002BFBD01F
:1001D400BDE81040184700BF0000000028000020C0
:1001E4009C2F0008240000200000000053B94AB9E5
:1001F400002908BF00281CBF4FF0FF314FF0FF302B
:1002040000F07EB9ADF1080C6DE904CE00F006F8FB
:10021400DDF804E0DDE9022304B070472DE9F0477E
:100224008C460E460446089D002B50D18A42174640
:100234006CD9B2FA82FEBEF1000F0BD0CEF12004CD
:1002440020FA04F401FA0EF644EA060C02FA0EF758
:1002540000FA0EF44FEA1749220CBCFBF9F01FFA1E
:1002640087F809FB10C642EA064600FB08F3B342CE
:1002740009D9F61900F1FF3280F02281B34240F22D
:100284001F8102383E44F61AA2B2B6FBF9F309FB09
:10029400136642EA064403FB08F8A04509D9E419A9
:1002A40003F1FF3280F00A81A04540F20781023B4E
:1002B4003C44C8EB040443EA00400021002D62D012
:1002C40024FA0EF400232C606B60BDE8F0878B42A7
:1002D40007D9002D55D0002185E841000846BDE826
:1002E400F087B3FA83F1002940F09080B34202D33F
:1002F400824200F2F880841A66EB03060120B446B9
:10030400002D40D085E81010BDE8F08712B9012710
:10031400B7FBF2F7B7FA87FEBEF1000F35D1F31B36
:100324004FEA17481FFA87FC0121B3FBF8F0220CAF
:1003340008FB103642EA06460CFB00F3B34207D929
:10034400F61900F1FF3202D2B34200F2CE80104619
:10035400F61AA2B2B6FBF8F308FB136642EA0644A7
:100364000CFB03FCA44507D9E41903F1FF3202D2C4
:10037400A44500F2B5801346CCEB040443EA0040E4
:100384009CE729462846BDE8F087CEF1200106FA0D
:100394000EF307FA0EF720FA01F94FEA1748CE4098
:1003A40049EA0309B6FBF8FA4FEA194408FB1A664E
:1003B4001FFA87FC44EA06430AFB0CF29A4200FA4D
:1003C4000EF40AD9DB190AF1FF3180F087809A42D2
:1003D40040F28480AAF1020A3B449B1A1FFA89F96D
:1003E400B3FBF8F108FB113349EA034301FB0CF6B4
:1003F4009E4207D9DB1901F1FF326BD29E4269D9C3
:1004040002393B449B1B41EA0A418EE7C1F1200EAD
:1004140022FA0EF48B40234320FA0EF706FA01F475
:100424004FEA134C26FA0EF63C43B6FBFCF9270CB4
:100434000CFB19661FFA83F847EA064609FB08F71E
:10044400B74202FA01F200FA01FA08D9F61809F1E2
:10045400FF3041D2B7423FD9A9F102091E44F61B2D
:10046400A0B2B6FBFCF40CFB146640EA064704FB9E
:1004740008F8B84507D9FF1804F1FF3028D2B84569
:1004840026D9023C1F4444EA0940C8EB0707A0FBF5
:1004940002894F4544464E4614D329D065B3BAEB7E
:1004A400040367EB060707FA0EFECB40CF404EEA83
:1004B400030385E888000021BDE8F0871346F8E6C9
:1004C4001046E0E6B8EB020469EB03060138E5E701
:1004D4000446D8E7114695E78146C0E78A467CE79B
:1004E400023B3C4448E708460AE702383E442FE70B
:1004F400C245E7D33E46D1E72946BDE8F08700BFB1
:10050400704700BF30B58BB000240594069407945F
:100514000894099401941E4B1A6B42F004021A6366
:100524001A6B02F004020192019A02941A6B42F0CF
:1005340080021A631A6B02F080020292029A0394F8
:100544001A6B42F001021A631A6B02F00102039261
:10055400039A04941A6B42F002021A631B6B03F0B1
:1005640002030493049B0B4D22464FF4005128468A
:1005740000F044FD4FF400530593012306930794C0
:10058400089405A9284600F063FC0BB030BD00BFF9
:10059400003802400008024072B6FEE708B50A4877
:1005A4000A4B03600A4B436000238360C3604FF42B
:1005B4008042026143618361C361036201F0E8FC2C
:1005C40008B1FFF7E9FF08BDC40000200054004053
:1005D400A086010000B595B03022002108A802F0E1
:1005E400D3FC002303930493059306930793019389
:1005F400204A116C41F080511164126C02F0805257
:100604000192019A02931C4A136823F4404343F471
:1006140000431360136803F440430293029B0123D5
:1006240008934FF48033099302230E934FF480020E
:100634000F9219221092A822119212930423139359
:1006440008A800F0D7F808B1FFF7A6FF0F2303931B
:1006540002210491002305934FF4805206920793DC
:1006640003A800F02BFB08B1FFF796FF15B05DF867
:1006740004FB00BF003802400070004008B500F0E1
:1006840069FDFFF7A7FFFFF73DFFFFF787FF00F0C6
:1006940001F8FCE700B583B0104C114A114920461B
:1006A40000F0F0FE0B2000F081FD282300930A22C5
:1006B4001146204600F0A0FD084800F0A5FE074CB6
:1006C400282300930A221146204600F095FD204677
:1006D40000F0A0FE0028F2D1EEE700BF18010020D0
:1006E4001118000818000020FEE700BFFEE700BF55
:1006F400FEE700BFFEE700BFFEE700BF704700BF94
:10070400704700BF704700BF08B500F03DFD08BD4D
:1007140008B5024802F0B4FA08BD00BFC4000020C6
:1007240008B5024802F080FB08BD00BFC4000020E9
:1007340082B0002100910B4B5A6C42F480425A64FF
:100744005A6C02F480420092009A01911A6C42F0B1
:1007540080521A641B6C03F080530193019B02B016
:10076400704700BF0038024030B589B000230393BE
:10077400049305930693079302681B4B9A4231D165
:1007840000240194194D2B6B43F002032B632B6B54
:1007940003F002030193019BC023039312230493E8
:1007A400012306930423079303A9114800F050FB87
:1007B40002942B6C43F400132B642B6C03F400138E
:1007C4000293029B224621461F2000F047FC1F2073
:1007D40000F076FC22462146202000F03FFC202039
:1007E40000F06EFC09B030BD0054004000380240F7
:1007F40000040240002800F0DD8170B582B0044698
:10080400036813F0010F5AD0A04B9B6803F00C034C
:10081400042B0AD09D4B9B6803F00C03082B0DD1CD
:100824009A4B5B6813F4800F08D0984B1B6813F441
:10083400003F44D06368002B41D1BDE16368B3F548
:10084400803F05D1914A136843F48033136015E067
:10085400B3F5A02F09D18D4B1A6842F480221A6097
:100864001A6842F480321A6008E0884B1A6822F44D
:1008740080321A601A6822F480221A6063687BB19D
:1008840000F08EFC054605E000F08AFC401B64285D
:1008940000F294817D4B1B6813F4003FF4D00EE00A
:1008A40000F07EFC054605E000F07AFC401B64285D
:1008B40000F28681754B1B6813F4003FF4D1236862
:1008C40013F0020F50D0714B9B6813F00C0F0AD039
:1008D4006E4B9B6803F00C03082B16D16B4B5B68C3
:1008E40013F4800F11D1694B1B6813F0020F03D06E
:1008F400E368012B40F06681644A136823F0F8032F
:10090400216943EAC10313602EE0E368D3B10122F5
:100914005F4B1A6000F044FC054605E000F040FC23
:10092400401B022800F25081584B1B6813F0020F41
:10093400F4D0564A136823F0F803216943EAC1034B
:10094400136011E00022524B1A6000F029FC0546A6
:1009540005E000F025FC401B022800F237814B4BD8
:100964001B6813F0020FF4D1236813F0080F26D08C
:10097400636993B10122474B1A6000F011FC0546EC
:1009840005E000F00DFC401B022800F221813F4BE2
:100994005B6F13F0020FF4D011E000223D4B1A609C
:1009A40000F0FEFB054605E000F0FAFB401B0228C0
:1009B40000F21081354B5B6F13F0020FF4D1236802
:1009C40013F0040F7DD0314B1B6C13F0805F0DD1FD
:1009D400002301932D4B1A6C42F080521A641B6C55
:1009E40003F080530193019B012500E000252A4B6D
:1009F4001B6813F4807F13D1274A136843F4807370
:100A0400136000F0CDFB064605E000F0C9FB801B37
:100A1400022800F2E180204B1B6813F4807FF4D09D
:100A2400A368012B05D1194A136F43F0010313671F
:100A340014E0052B09D1154B1A6F42F004021A6712
:100A44001A6F42F001021A6708E0104B1A6F22F085
:100A540001021A671A6F22F004021A67A3688BB1A5
:100A640000F09EFB064607E000F09AFB801B41F273
:100A74008833984200F2B280044B1B6F13F0020FCC
:100A8400F2D018E000F08CFB06460FE0003802407C
:100A940000004742800E47420070004000F080FB97
:100AA400801B41F28833984200F29A80594B1B6FA5
:100AB40013F0020FF2D125B1564A136C23F0805380
:100AC4001364A369002B00F08D80524A926802F0EF
:100AD4000C02082A48D0022B33D100224E4B1A6054
:100AE40000F05EFB054604E000F05AFB401B0228C0
:100AF4007AD8484B1B6813F0007FF5D1E269236A6A
:100B04001343626A43EA8213A26A5208013A43EA2F
:100B14000243E26A43EA02633E4A536001223E4BC7
:100B24001A6000F03DFB044604E000F039FB001BB2
:100B340002285BD8374B1B6813F0007FF5D00020E8
:100B440065E00022344B1A6000F02AFB044604E0FE
:100B540000F026FB001B02284AD82E4B1B6813F01A
:100B6400007FF5D1002052E0012B43D0294A52687E
:100B740042D002F48003E1698B423FD102F03F038B
:100B8400216A8B423CD1616A47F6C0731340B3EBD0
:100B9400811F37D102F44031A36A5B08013BB1EBFA
:100BA400034F31D102F07062E36AB2EB036F2DD0D0
:100BB40001202CE001207047012028E0032026E0DA
:100BC400032024E0012022E0032020E003201EE093
:100BD40003201CE003201AE0032018E0032016E0A1
:100BE400032014E0002012E0032010E003200EE0B4
:100BF40003200CE001200AE0012008E0012006E0C7
:100C0400012004E0012002E0012000E0002002B005
:100C140070BD00BF003802406000474238B5244B25
:100C24009B6803F00C03042B3FD0082B01D0214810
:100C340038BD1F4B5A6802F03F025B6813F4800F03
:100C44000AD01B4B5968C1F3881100231A48A1FB31
:100C54000001FFF7CBFA1FE0154B5B68C3F3881361
:100C6400DC000025690141EAD4616001041B61EBE9
:100C74000505A90141EA9461A001001B61EB05018E
:100C8400C01841F100018B0243EA905384022046CC
:100C940019460023FFF7AAFA054B5B68C3F3014327
:100CA40001335B00B0FBF3F038BD034838BD00BF2F
:100CB400003802400024F40040787D01002800F050
:100CC400988070B50446524B1B6803F007038B42AF
:100CD40008D2CBB24E4A1370136803F0070399424B
:100CE40040F08980236813F0020F17D013F0040F2B
:100CF40004D0484A936843F4E0539360236813F0A4
:100D0400080F04D0434A936843F460439360414816
:100D1400836823F0F002A368134383600D462368BD
:100D240013F0010F2FD06268012A05D1394B1B68DB
:100D340013F4003F0ED160E0931E012B05D8354B10
:100D44001B6813F0007F05D159E0324B1B6813F088
:100D5400020F56D02F498B6823F0030313438B6093
:100D640000F01EFA064606E000F01AFA801B41F273
:100D74008833984247D8274B9B6803F00C0362687A
:100D8400B3EB820FF0D1224B1B6803F007039D42A3
:100D940007D2EAB21E4B1A701B6803F007039D4288
:100DA40033D1236813F0040F06D01A498B6823F457
:100DB400E052E36813438B60236813F0080F07D0F5
:100DC400144A936823F46043216943EAC10393609E
:100DD400FFF724FF0F4B9B68C3F303130E4AD35C46
:100DE400D8400E4B18600E4B186800F08DF90020A7
:100DF40070BD01207047012070BD012070BD01202D
:100E040070BD012070BD032070BD012070BD00BF06
:100E1400003C024000380240B42F000808000020C3
:100E240000000020014B1868704700BF0800002034
:100E340008B5FFF7F7FF044B9B68C3F38223034A0B
:100E4400D35CD84008BD00BF00380240C42F00085E
:100E5400F0B583B00023C3E001229A400C6802EA93
:100E64000405AA4240F0BB804C6804F00304013C32
:100E7400012C15D887684FEA430E032606FA0EF6AE
:100E840027EA0606CC6804FA0EF434438460446806
:100E940024EA02024C68C4F300149C4022434260DA
:100EA4004A6802F00302032A09D0C6685F000324DB
:100EB400BC4026EA04048A68BA402243C2604A68F5
:100EC40002F00302022A0FD1DC08083450F824701F
:100ED40003F0070296000F22B24027EA02070A69CC
:100EE400B2403A4340F8242004685F000326BE4021
:100EF40024EA06064A6802F0030404FA07F23243BD
:100F040002604A6812F4403F69D000220192374AD5
:100F1400546C44F480445464526C02F48042019250
:100F2400019A9E08B41C324A52F8244003F003028A
:100F340092000F27974024EA07072E4CA04211D0B5
:100F440004F58064A0420FD004F58064A0420DD063
:100F540004F58064A0420BD004F58064A04209D15A
:100F6400042408E0002406E0012404E0022402E052
:100F7400032400E0072404FA02F23A4302361C4C2C
:100F840044F826201C4A1468EA4304EA02064F681F
:100F940017F4803F01D045EA0406174C26606468C4
:100FA40002EA04064F6817F4003F01D045EA04063C
:100FB400114C6660A46802EA04064F6817F4801FA7
:100FC40001D045EA04060C4CA660E46822404E6851
:100FD40016F4001F01D045EA0402074CE260013315
:100FE4000F2B7FF639AF03B0F0BD00BF00380240CD
:100FF4000038014000000240003C01400AB1816118
:10100400704709048161704790F83530DBB2022BD8
:1010140003D08023436501207047052380F83530D1
:101024000268136823F0010313600020704700BFB7
:1010340090F83500704700BF074AD36823F4E06393
:101044001B041B0C000200F4E060184340F0BF6076
:1010540040F40030D060704700ED00E030B4164B2F
:10106400DB68C3F30223C3F10704042C28BF042460
:101074001D1D062D01D9DD1E00E00025012303FA04
:1010840004F4013C2140A940AB40013B1A400A430F
:10109400002808DB1201D2B200F1604000F5614083
:1010A40080F8002305E000F00F001201D2B2034BD8
:1010B4001A5430BC704700BF00ED00E014ED00E0AE
:1010C400002808DB420900F01F00012303FA00F0A6
:1010D400014B43F82200704700E100E00138B0F111
:1010E400807F0AD2064B5860F021064A82F823100A
:1010F4000020986007221A6070470120704700BFE3
:1011040010E000E000ED00E010B504460E4B187846
:101114004FF47A73B3FBF0F30C4A1068B0FBF3F0AE
:10112400FFF7DCFF58B90F2C0BD8002221464FF0F3
:10113400FF30FFF793FF064B1C60002010BD012019
:1011440010BD012010BD00BF0400002008000020D5
:101154000000002008B50B4B1A6842F400721A60B4
:101164001A6842F480621A601A6842F480721A6043
:101174000320FFF761FF0F20FFF7C6FFFFF7D8FA40
:10118400002008BD003C0240034A13680349097863
:101194000B441360704700BF54010020040000207A
:1011A400014B1868704700BF5401002038B504464D
:1011B400FFF7F6FF0546B4F1FF3F02D0044B1B785E
:1011C4001C44FFF7EDFF401B8442FAD838BD00BF32
:1011D40004000020034AD2F8883043F47003C2F8B4
:1011E4008830704700ED00E000207047014B4362F7
:1011F400704700BFED1100082DE9F04F83B0019056
:101204000C4616461F469DF83030B94204D9C7EB48
:1012140001085FFA88F803E0C1EB07085FFA88F871
:101224009E4204D9C3EB060B5FFA8BFB03E0C6EBCB
:10123400030B5FFA8BFBD84505D35A46C346904649
:101244004FF0000907E03A461F461346224634464B
:1012540016464FF00109BC4205D932461E461346D4
:1012640022463C4617464BF347059E4202D24FF0B6
:10127400010A01E04FF0FF3AFF2F1ED1013FFFB2F8
:101284001BE0B9F1000F05D132462146019800F068
:10129400CBF804E022463146019800F0C5F8C8EBCB
:1012A4000505EBB25DB2002D05DA56FA8AF6F6B200
:1012B4000BEB03056DB20134E4B2A742E1D203B0F3
:1012C400BDE8F08F10B50C68A04710BD38B50446D2
:1012D4000D46436B0220984700230A2229462046E4
:1012E400FFF7F0FF0546636B03209847636B00200C
:1012F4009847284638BD00BF38B504460D46436BB1
:1013040002209847636B0120984700231422294642
:101314002046FFF7D7FF04F1380317222946204659
:10132400FFF7D0FF636B0020984738BD70B50446C3
:101334000D46436B02209847636B012098470023B6
:10134400152229462046FFF7BDFF064630B104F1B9
:101354003803172229462046FFF7B4FF636B0020A9
:101364009847304670BD00BF10B580F82D2080F836
:101374002E3000F12D033222FFF7A4FF10BD00BF71
:1013840000B583B00DF107034622FFF79BFF9DF8DC
:10139400070003B05DF804FB00B583B00DF107034B
:1013A4004722FFF78FFF9DF8070003B05DF804FBA9
:1013B40008B500234822FFF785FF08BD10B5044691
:1013C4004168FFF7DDFF207061682046FFF7E4FF06
:1013D400607061682046FFF7EBFFE07404F13803A6
:1013E400172261682046FFF76DFF10BD10B5044653
:1013F4004168FFF76BFF034618B12046FFF7DEFF95
:101404000123184610BD00BF08B54168FFF774FFFB
:1014140008BD00BF10B50446836903B198476168ED
:101424002046FFF783FF10BD08B513460A464168FE
:10143400FFF79AFF08BD00BF80F83110704700BF66
:1014440070B5044600258560C560457401260674A0
:101454002223837485613146FFF7EEFF2046FFF7B0
:10146400C5FE84F8286084F8295084F82A50402363
:1014740084F82B3084F82C50014B636370BD00BF9B
:10148400DD16000870B504460D461646FFF7D8FF72
:101494006560AE602046FFF7A9FF70BD0022827030
:1014A4000378013BC3700271704700BF10B4047825
:1014B40083782344DBB2837041788B420CD2037966
:1014C40001330371C278A318DBB2994201D84B1ED1
:1014D400DBB2C370012000E000205DF8044B7047CC
:1014E4008368407918445A1C0021197013469042AD
:1014F400F9D1704710B4C4788C4234BF002401245D
:10150400837893428CBF00230123914294BF00212E
:10151400012104EA03000B40034304EA01001843D9
:101524005DF8044B704700BF00230B7083784B7049
:101534004379013B8B70C378CB70704708B54B7807
:10154400CA78012A02D0032A04D008E003F1080271
:10155400D2B205E0A3F108011A46CBB200E01A4664
:101564001946FFF7C7FF08BD10B50C46114683683E
:101574004279204600F0DAF810BD00BF10B4846848
:101584008078121A02F00702012000FA02F2D2B2A5
:101594001BB1635C1A43625403E0635C23EA0202F6
:1015A40062545DF8044B70474A7883789A420CD3AE
:1015B400C3789A4209D810B50C7843799C4203D277
:1015C4000B792146FFF7DAFF10BD70472DE9F04192
:1015D40080460D468C78CB78032B03D8DFE803F0E4
:1015E4000E05080B002637460AE00126002707E00F
:1015F4000026FF2704E0FF26002701E0002601273C
:1016040014F0800F03D029464046FFF7CDFF2B7816
:101614003B442B706B7833446B70640014F0FF040C
:10162400EED1BDE8F08100BF38B51D464C68143AD0
:10163400332A4CD8DFE802F02B334B3D4B4B4B4B5A
:101644004B4B4B4B4B4B4B4B4B4B4B4B4B4B4B4BE6
:101654004B4B4B4B4B4B254B4B4B4B4B4B4B4B1A2D
:101664004B4B4B4B4B4B4B4B4B4B43472946204629
:10167400FFF764FF68B329462046FFF7A7FF01235D
:1016840028E029462046FFF78FFF012322E0204669
:10169400FFF726FF2046FFF701FF01231AE020464B
:1016A400FFF704FF0346A8B12046FFF719FF012303
:1016B40010E029462046FFF737FF01230AE063794B
:1016C4002B70012306E063782B70012302E00123D1
:1016D40000E00123184638BD704700BF10B58C6880
:1016E40000230121A04710BD10B58C6800230321FD
:1016F400A04710BD10B58C6800231A460421A047EA
:1017040010BD00BF10B58C68002301220421A0473E
:1017140010BD00BF10B58C6800230221A04710BD86
:1017240010B58C6800230521A04710BD10B58C6846
:101734000621A04710BD00BF2DE9F04107468846A9
:10174400154600262C7856B9FF2C4DD0224641462A
:101754003846FFF7E5FF034600284CD14EE0FF2C46
:1017640009D1224641463846FFF7DAFF03460028EE
:1017740044D000263FE0FE2C3FD0EF2C36D8DF2C9F
:1017840007D904F00F0241463846FFF7C3FF00268D
:1017940031E0CF2C07D904F00F0241463846FFF759
:1017A400A3FF002627E0BF2C14D941463846FFF793
:1017B400A1FF2401E4B2023404F0FE04204600F048
:1017C40021F841463846FFF79DFF204600F01AF8FD
:1017D400002610E0BD2C0BD814F0800F0AD120464F
:1017E40000F010F8002606E0012604E0002602E0DE
:1017F400002600E000260135A4E701231846BDE8D1
:10180400F08100BF08B5FFF7D1FC08BD10B5ADF5F8
:101814007C7D0239052932D8DFE801F00331310B30
:101824001B1B12B9184B1A7029E04022164B1A7070
:1018340025E0154B1B788DF808308DF809204FF4FE
:101844007A730093022302AA7821104800F07AFCEC
:1018540015E00D4909788DF80810012104E01C7881
:1018640002A84454013101339142F8DD4FF47A73F4
:101874000093134602AA7821044800F063FC012077
:101884000DF57C7D10BD00BF40000020C400002089
:10189400012070472DE9F04105460C4616461F46C7
:1018A400A2F10A030B2B52D8DFE803F00651515181
:1018B40051382E335151510F0222FFF70FFF294A9D
:1018C40021462846FFF738FF41E0D1F80480264A34
:1018D400FFF732FF98F8042042F0B0022146284670
:1018E400FFF71EFF012221462846FFF713FF224679
:1018F40029464046FFF738FE034678B300222146C6
:101904002846FFF7F1FE22E0184AFFF715FF0123EE
:1019140024E0174AFFF710FF01231FE00122FFF71D
:10192400E3FE002221462846FFF7F4FE81222146E9
:101934002846FFF7F5FE3A7821462846FFF7F0FEE1
:10194400002221462846FFF7CFFE012306E03B464E
:10195400324621462846FFF767FE03461846BDE88F
:10196400F08100BFE42F00080C300008D82F0008D5
:10197400CC2F000890F83E30DBB2402B0ED1036D23
:101984002BB90268436C03F0FE03136170470268CD
:10199400436C43F00103DBB2136170470369B3F591
:1019A400804F1ED190F83D30DBB2212B05D1026867
:1019B400436C03F0FE03136105E00268436C43F0DB
:1019C4000103DBB21361436B0BB1DB6B1BB9836B9C
:1019D400EBB1DB6BDBB10268536843F40063536023
:1019E4007047036D43B90268436CDB1103F00603CF
:1019F40043F0F00313617047036D012B07D10268B4
:101A0400436CDB1103F0060343F0F10313617047E9
:101A14000268436CDBB21361436B0BB1DB6B1BB924
:101A2400836B33B1DB6B23B10268536843F4006307
:101A34005360704710B48BB090F83E30DAB2C16A8C
:101A4400046B90F83D30DBB2222B40F0EA80036D4A
:101A54004BB9402A07D1009303685A6900929B69E5
:101A64000093009BE5E0036D9BB90369B3F5404F18
:101A74000FD10023019303685A6901929A69019274
:101A8400019A1A6842F480721A60036D0133036587
:101A9400CFE0438D9BB25BB9029303685A6902920B
:101AA4009A690292029A1A6842F400721A60B5E0C6
:101AB400438D9BB2012B59D111F5803F22D102688D
:101AC400136823F48063136003685A6812F4006F88
:101AD4000CD01A6822F480621A600023039303680E
:101AE4005A6903929B690393039B97E00022049233
:101AF4005A6904929A690492049A1A6842F4007228
:101B04001A608BE008291FD020291DD0122C01D186
:101B1400012919D1042909D0022907D0102905D097
:101B24000268136823F48063136004E00268136896
:101B340043F4806313600023059303685A69059294
:101B44009B690593059B69E00268136823F480632D
:101B540013600023069303685A6906929A690692F1
:101B6400069A1A6842F400721A6057E0438D9BB2D9
:101B7400022B32D104290ED002290CD010290AD00C
:101B84000268136823F4806313600268136843F4E3
:101B94000063136004E00268136843F48063136015
:101BA40003685A6812F4006F0ED011F5803F07D015
:101BB400012905D0082903D0102901D0202903D1F7
:101BC4005A6842F480525A600023079303685A69A2
:101BD40007929B690793079B20E00268136843F40C
:101BE4008063136003685A6812F4006F0ED011F515
:101BF400803F07D0012905D0082903D0102901D03E
:101C0400202903D15A6842F480525A600023089371
:101C140003685A6908929B690893089B002303652B
:101C240007E00023099303685A6909929B690993A1
:101C3400099B0BB05DF8044B704700BF438D9BB20A
:101C44005BB10368426A12781A61436A01334362E2
:101C5400438D9BB2013B9BB243857047438D9BB23E
:101C64005BB1436A026812691A70436A01334362C2
:101C7400438D9BB2013B9BB24385704782B00023E6
:101C840001930E4B1B68DB080D4AA2FB03231B0ABE
:101C940003EB83030193019B013B0193019B2BB94C
:101CA400036C43F020030364012005E003681B6810
:101CB40013F4007FEFD1002002B070470800002029
:101CC40089B5F81403685A6912F4806F11D06FF45F
:101CD40080625A6100230363202280F83D2080F84B
:101CE4003E30026C42F00402026480F83C30012071
:101CF40070470020704700BFC36AB3F52A0F02D1B2
:101D04000123C3627047C36AB3F12A4F01D1082388
:101D1400C3627047F8B506460C4617461D4618E0E0
:101D2400B5F1FF3F15D0FFF73BFA069BC01A854279
:101D340000D375B900233363202286F83D2086F84A
:101D44003E30326C42F02002326486F83C3001208E
:101D5400F8BDC4F30743012B08D133685B6924EA57
:101D640003039BB2B3FA83F35B0907E033689B690F
:101D740024EA03039BB2B3FA83F35B09BB42CFD0DB
:101D84000020F8BDF8B504460D4616461F4633E05C
:101D940023685A6912F4806F16D01A6842F40072EC
:101DA4001A6023686FF480625A610023236320223F
:101DB40084F83D2084F83E30226C42F00402226410
:101DC40084F83C300120F8BDB6F1FF3F14D0FFF792
:101DD400E7F9C01B864200D376B90023236320228F
:101DE40084F83D2084F83E30226C42F020022264C4
:101DF40084F83C300120F8BDC5F30743012B08D11A
:101E040023685B6925EA03039BB2003318BF0123EF
:101E140007E023689B6925EA03039BB2003318BFDC
:101E24000123002BB4D10020F8BD00BFF0B583B06E
:101E340004460F4615461E46C36A082B04D0012BE0
:101E440002D013F5803F05D12268136843F48073F0
:101E5400136007E0036B122B04D10268136843F488
:101E64008073136000962B4600224FF00111204628
:101E7400FFF750FF48B123681B6813F4807F28D014
:101E84004FF400732364032326E02369B3F5804FE2
:101E940004D1236807F0FE071F6110E02268FB11DC
:101EA40003F0060343F0F003136133462A460C495A
:101EB4002046FFF767FF70B92368FFB21F613346FE
:101EC4002A4608492046FFF75DFF034620B1012357
:101ED40002E0032300E00123184603B0F0BD00BF75
:101EE400080001000200010070B504460D461646C4
:101EF4001BE02046FFF7E6FEF0B9B5F1FF3F14D032
:101F0400FFF74EF9801B854200D375B90023236384
:101F1400202284F83D2084F83E30226C42F02002D6
:101F2400226484F83C30012070BD23685B6913F09F
:101F3400800FDED0002070BD012070BD70B5044656
:101F44000D4616461BE02046FFF7BCFEF0B9B5F17E
:101F5400FF3F14D0FFF724F9801B854200D375B9E5
:101F640000232363202284F83D2084F83E30226C31
:101F740042F02002226484F83C30012070BD2368C2
:101F84005B6913F0040FDED0002070BD012070BD2A
:101F9400002800F0C980F8B5044690F83D3013F0ED
:101FA400FF0F04D1002380F83C30FEF7DDFB24232F
:101FB40084F83D302268136823F00103136022681B
:101FC400136843F4004313602268136823F4004346
:101FD4001360FEF72DFF6268554B9A4205D8554BA6
:101FE40098428CBF0023012304E0534B98428CBFDA
:101FF40000230123002B40F09980504BA3FB0023C6
:102004009B0C21684A6822F03F021A434A60256803
:102014002A6A22F03F02666845498E4201D801339C
:1020240008E04FF4967101FB03F34549A1FB031348
:102034009B09013313432B622568E96921F44F415D
:1020440021F0FF0166683A4B9E420AD8431E700095
:10205400B3FBF0F00130C0F30B00042838BF0420B8
:1020640035E0A3685BB9421E06EB4607B2FBF7F204
:102074000132C2F30B02B2FA82F252090CE0421EA0
:1020840006EB860707EB8707B2FBF7F20132C2F3D0
:102094000B02B2FA82F25209C2B953B9421E06EBDC
:1020A4004600B2FBF0F00130C0F30B0343F40040F0
:1020B4000DE0421E06EB860606EB8606B2FBF6F33F
:1020C4000133C3F30B0343F4404000E00120084311
:1020D400E86121680B6823F0C002E069236A0343C6
:1020E40013430B6021688B6823F4034222F0FF0240
:1020F4002069E368034313438B602168CB6823F0B2
:10210400FF026069A36903431343CB602268136829
:1021140043F00103136000202064202384F83D3041
:10212400206384F83E00F8BD012070470120F8BD0B
:10213400A08601007F841E00FF083D0083DE1B4350
:10214400D34D62102DE9F04184B004460D4690460B
:102154001F46FFF725F894F83D30DBB2202B40F002
:102164009680064600901923012250492046FFF725
:10217400D1FD002840F08D8094F83C30012B00F014
:102184008A80012384F83C3023681A6812F0010F16
:1021940003D11A6842F001021A602268136823F41A
:1021A40000631360212384F83D30102384F83E300B
:1021B40000232364C4F824806785638D23853C4B06
:1021C400E36233460A9A29462046FFF72FFE054666
:1021D400002862D10023039323685A6903929B6900
:1021E4000393039B42E032460A992046FFF77CFEA4
:1021F40048B1236C042B52D12268136843F4007352
:10220400136001254EE02368626A12781A61616ADC
:102214004B1C6362638D9BB2013B9BB26385238D30
:10222400013B9BB223852268506910F0040F0DD046
:1022340063B14B781361636A01336362638D9BB24C
:10224400013B9BB26385238D013B238532460A996A
:102254002046FFF773FE48B1236C042B21D122687A
:10226400136843F40073136001251BE0238D002BD6
:10227400B9D12268136843F400731360202384F8EF
:102284003D30002384F83E3084F83C300AE00225D7
:1022940008E0022506E0022504E0012502E001250C
:1022A40000E00125284604B0BDE8F08102001000DA
:1022B4000000FFFF704700BF704700BF704700BFBA
:1022C40008B590F83D30DAB2438D9BB2E3B10368B0
:1022D400416A09781961436A01334362438D9BB2B1
:1022E400013B9BB24385438D9BB26BB9292A0BD129
:1022F4000268536823F48063536021230363282313
:1023040080F83D30FFF7DAFF08BD00BF704700BF1B
:1023140008B590F83D30DAB2438D9BB2E3B1436A1D
:10232400016809691970436A01334362438D9BB2A2
:10233400013B9BB24385438D9BB26BB92A2A0BD1D7
:102344000268536823F480635360222303632823C1
:1023540080F83D30FFF7DAFF08BD00BF704700BFCB
:1023640000B583B090F83D3003F02803282B17D133
:102374000268536823F48063536011F0040F01D0A2
:10238400002300E0012311F0800F01D1828900E0D5
:10239400028B002180F83C101946FFF7DFFF09E0AB
:1023A4000023019302685169019192690192019A93
:1023B40080F83C3003B05DF804FB00BF704700BFF9
:1023C40008B590F83D30DBB2C26A082A01D0202A51
:1023D4001BD1282B19D11E4BC3620268536823F406
:1023E400E063536003686FF480625A6102681368A3
:1023F40023F48063136000230363202280F83D20CC
:1024040080F83E30FFF7DAFF08BD212B1AD1104BBC
:10241400C36221230363202380F83D30002380F826
:102424003E300268536823F4E063536003686FF43A
:1024340080625A610268136823F480631360FFF7B3
:102444003DFF08BD03686FF480625A6108BD00BF98
:102454000000FFFF704700BF08B5C26A90F83D3026
:10246400DBB2212B45D1438D9BB263B10368426A31
:1024740012781A61436A01334362438D9BB2013B74
:102484009BB2438508BD082A14D0202A12D012F525
:10249400803F0FD00268536823F4E0635360112334
:1024A4000363002380F83E30202380F83D30FFF79B
:1024B40001FF08BD0268536823F4E06353600268B7
:1024C400136843F40073136000230363202380F82C
:1024D4003D3090F83E30DBB2402B05D1002380F82C
:1024E4003E30FFF7B7FF08BD002380F83E30FFF70A
:1024F400E1FE08BD08B590F83D30026D9AB9C36C91
:10250400012B07D10268836CDBB21361036D0233C4
:10251400036508BD0268836CC3F307231361036D6D
:102524000133036508BDDBB2026D012A07D10268DD
:10253400836CDBB21361036D0133036508BD026D67
:10254400022A34D1222B08D10268136843F4807321
:102554001360036D0133036508BD428D92B272B1FD
:10256400212B0CD10368426A12781A61436A013341
:102574004362438D9BB2013B9BB2438508BD428DB0
:1025840092B2A2B9212B12D10268536823F4E063FA
:1025940053600268136843F40073136000230363F9
:1025A400202280F83D2080F83E30FFF753FF08BD1D
:1025B40010B590F83D30DBB290F83E20D2B2C46A38
:1025C400018D002938D1212B36D1082C14D0202C90
:1025D40012D014F5803F0FD00268536823F4E063EF
:1025E400536011230363002380F83E30202380F8D6
:1025F4003D30FFF75FFE10BD0268536823F4E063CB
:1026040053600268136843F4007313600023036388
:10261400202380F83D3090F83E30DBB2402B05D1CA
:10262400002380F83E30FFF715FF10BD002380F82B
:102634003E30FFF73FFE10BD212B03D0402A1ED1B0
:10264400222B1CD1438D9BB22BB90268536823F40F
:102654008063536010BD90F83E30DBB2402B02D152
:10266400FFF748FF10BD0368426A12781A61436A93
:1026740001334362438D9BB2013B9BB2438510BD42
:10268400704700BF08B5C26A438D9BB2042B11D1B9
:102694000268536823F480635360436A02681269D2
:1026A4001A70436A01334362438D9BB2013B9BB270
:1026B400438508BD438D9BB2032B1AD101684B6837
:1026C40023F480634B60042A06D0022A04D00268F3
:1026D400136823F480631360436A026812691A70F2
:1026E400436A01334362438D9BB2013B9BB24385F2
:1026F40008BD438D9BB2022B4DD1012A01D0102A73
:1027040005D10268136823F48063136010E0042A7F
:1027140001D0022A05D10268136843F48063136070
:1027240006E0102A04D00268136843F400731360AF
:10273400436A026812691A70426A531C4362438DE9
:102744009BB2013B9BB2438503681B695370436A88
:1027540001334362438D9BB2013B9BB243850268C4
:10276400536823F440735360202380F83D3090F87D
:102774003E30DBB2402B06D1002380F83E300363A9
:10278400FFF77EFF08BD002380F83E301223036369
:10279400FFF792FD08BD436A026812691A70436A22
:1027A40001334362438D9BB2013B9BB2438508BD19
:1027B400704700BF90F83D30DBB2222B18D1438D17
:1027C4009BB2032B15D9436A026812691A70436AD3
:1027D40001334362438D9BB2013B9BB24385438DDE
:1027E4009BB2032B04D10268536823F480635360C3
:1027F4007047C26A022AFBD0012BF9D810B50446EF
:10280400FFF73CFA00282ED12268136823F4806372
:1028140013602268536823F4E0635360636A226898
:1028240012691A70636A01336362638D9BB2013B60
:102834009BB26385202384F83D3094F83E30DBB2AC
:10284400402B07D1002384F83E3023632046FFF752
:1028540017FF10BD002384F83E3012232363204663
:10286400FFF72AFD10BD2268536823F4E063536028
:10287400636A226812691A70636A01336362638D42
:102884009BB2013B9BB26385202384F83D30002337
:1028940084F83E302046FFF78BFF10BD704700BF21
:1028A40000B583B000230193806B90F83D20D2B231
:1028B400324B1B68DB083249A1FB03131B0A03EBF1
:1028C4008303C3EBC3030193019B23B9036C43F05C
:1028D4002003036407E0019B013B019303681B6829
:1028E40013F4007FF0D1436B0BB10021D963836BE8
:1028F4000BB10021D96301680B6823F480630B607A
:1029040000234385436B0BB100211965836B0BB125
:102914000021196501680B6823F001030B6090F82E
:102924003D30DBB2602B09D1202380F83D300023F9
:1029340080F83E300364FFF7B1FF1BE002F0280289
:10294400282A0FD10268136843F001031360026858
:10295400136843F48063136000230363282380F81F
:102964003D3005E0202380F83D30002380F83E30E0
:10297400FFF71EFF03B05DF804FB00BF0800002052
:1029840089B5F81410B5044690F83D30DBB290F8E0
:102994003E20D2B2102A01D0402A06D1222B04D1E3
:1029A40021680A6822F400620A6003F02802282AD7
:1029B40005D100232363282384F83D300EE02268E8
:1029C400526812F4006F07D1602B05D0202384F8DD
:1029D4003D30002384F83E300023236323685A6883
:1029E40012F4006F3BD05A6822F400625A60626BA2
:1029F40092F83530DBB2012B12D03D4B1365606B7E
:102A0400FEF702FB002854D02268136823F0010368
:102A14001360202384F83D30606B036D984748E0D1
:102A2400A36B334A1A65A06BFEF7EEFA002840D078
:102A340023685A6912F0400F05D0626A1B6913704B
:102A4400636A013363622268136823F0010313602D
:102A5400202384F83D30A06B036D984729E094F857
:102A64003D20D2B2602A17D1202284F83D200022D2
:102A740022645A6912F0400F05D0626A1B69137010
:102A8400636A013363622268136823F001031360ED
:102A94002046FFF703FF0CE05A6912F0400F05D0FF
:102AA400626A1B691370636A013363622046FFF72D
:102AB4007FFE236C13F00F0F04D02268536823F4B5
:102AC400E063536094F83D30DBB2226C12F0040FE3
:102AD4000DD0282B0BD1074BE36200232363202264
:102AE40084F83D2084F83E302046FFF767FC10BD93
:102AF400A52800080000FFFF30B583B0044690F815
:102B04003D50EDB20268536823F4E0635360002340
:102B1400019303685A6901921A6842F001021A602B
:102B2400019B0268136823F48063136003685A6886
:102B340012F4006F42D0222D01D02A2D1FD1A26B96
:102B44001268526892B26285628D92B21AB1226C96
:102B540042F0040222645A6822F400625A60A06BB4
:102B6400FEF766FA012829D0A36B434A1A65A06BC5
:102B7400FEF74AFA10B3A06B036D98471EE0426B50
:102B84001268526892B24285428D92B21AB1026CB6
:102B940042F0040202645A6822F400625A60606BD4
:102BA400FEF746FA012809D0636B334A1A65606B55
:102BB400FEF72AFA10B1606B036D9847638D9BB2E0
:102BC40033B323685A6912F0040F0AD0626A1B698E
:102BD4001370636A01336362638D9BB2013B9BB2E2
:102BE400638523685A6912F0400F0AD0626A1B6930
:102BF4001370636A01336362638D9BB2013B9BB2C2
:102C04006385638D9BB21BB1236C43F0040323647F
:102C1400236C1BB12046FFF7B5FE2AE02A2D07D10D
:102C240000232363282384F83D302046FFF76EFBFE
:102C340094F83D30DBB2282B0CD1104BE362002317
:102C44002363202284F83D2084F83E302046FFF799
:102C5400B5FB0EE0236B222B01D0222D09D10023DA
:102C64002363202284F83D2084F83E302046FFF779
:102C74004DFB03B030BD00BFA52800080000FFFFD6
:102C8400F8B5044602685568C66A90F83E30DBB26F
:102C940090F83D10C8B2102B01D0402B74D1D2F85B
:102CA40018E0516911F001070DD1B6F52A0F04D0CF
:102CB400B6F12A4F03D1012602E0012600E00026E6
:102CC400002E40F0B0804FB115F4007F06D02046AE
:102CD400FFF712F82046FEF74DFEF8BD11F0080F7D
:102CE40006D015F4007F03D02046FEF791FEF8BD10
:102CF40011F0020F06D015F4007F03D02046FEF732
:102D040099FEF8BD1EF0040F23D0526812F4006F30
:102D140040F0898011F0800F09D015F4806F06D03F
:102D240011F0040F03D12046FFF742FCF8BD11F067
:102D3400040F78D015F4007F75D0212803D12046E4
:102D4400FFF78AFBF8BD402B6DD12046FFF7D2FB7D
:102D5400F8BD536813F4006F65D111F0400F09D02A
:102D640015F4806F06D011F0040F03D12046FFF74D
:102D740021FDF8BD11F0040F55D015F4007F52D099
:102D84002046FFF77FFCF8BD236C13B15369002183
:102D940001E09169536913F0020F09D015F4007F23
:102DA40006D0236C03B191692046FFF7D9FAF8BD28
:102DB40013F0100F06D015F4007F03D02046FFF760
:102DC4009BFEF8BD212801D0292816D113F0800FCD
:102DD40009D015F4806F06D013F0040F03D12046F8
:102DE400FFF76EFAF8BD13F0040F1CD015F4007F42
:102DF40019D02046FEF722FFF8BD13F0400F09D08A
:102E040015F4806F06D013F0040F03D12046FFF7AA
:102E14007FFAF8BD13F0040F05D015F4007F02D03B
:102E24002046FEF71BFFF8BDF8B5044603685D694C
:102E34005F6890F83E20D2B215F4807F07D017F473
:102E4400807F06D06FF480715961012602E000266C
:102E540000E0002615F4007F08D017F4807F05D029
:102E640046F0020623686FF40071596115F4806F0F
:102E740026D017F4807F23D0638D99B294F83D3027
:102E8400DBB2206B202A0CD159B9212B05D0292B78
:102E940003D0282B05D1212803D12046FFF790FA2F
:102EA4000EE023686FF48061596146F00406102A2D
:102EB40001D0402A04D12268136843F400731360DC
:102EC40015F4006F08D017F4807F05D046F008068B
:102ED40023686FF400625A612EB1236C1E4326648A
:102EE4002046FFF74FFDF8BDDFF834D00D480E49FA
:102EF4000E4A002302E0D458C4500433C4188C4250
:102F0400F9D30B4A0B4C002301E013600432A242B4
:102F1400FBD3FEF75FF900F011F8FDF7AFFB704744
:102F240000000120000000202400002024300008BC
:102F34002400002058010020FEE7000070B50E4B6D
:102F44000E4CE41AA41000251E46A54204D056F8DF
:102F5400253098470135F8E700F01EF8084C094B76
:102F6400E41AA41000251E46A54204D056F82530C4
:102F740098470135F8E770BD1C3000081C30000884
:102F8400203000081C30000802440346934202D05B
:102F940003F8011BFAE77047F8B500BFF8BC08BC9A
:102FA4009E467047F8B500BFF8BC08BC9E46704703
:102FB40000000000000000000102030406070809E5
:102FC4000000000001020304FFE0FFD1AFFF32FF65
:102FD400D0FFFE00FFE0FFD1AEFFD0FFFE000000F7
:102FE400FFD0FFE0FFC1FFD1AED580A83FD30040A2
:102FF4008D142000A1C8DA1281CFD9F1DB402EA4B0
:10300400A6AFFFD0FFFE0000FFE0FFD11000FFFEDF
:083014000CD2FF7F0100000057
:04301C00B9010008EE
:04302000950100080E
:1030240010000000010000000024F400084000002B
:103034000080000044000020991800080C000020C3
:0430440095180008D3
:0400000508002EEDD4
:00000001FF
