:020000040800F2
:1000000000000120C93E0008B1090008B509000838
:10001000B9090008BD090008C10900080000000076
:10002000000000000000000000000000513C00083B
:10003000C509000800000000F13C0008553D00081B
:10004000193F0008193F0008193F0008193F000830
:10005000193F0008193F0008193F0008193F000820
:10006000193F0008193F0008193F0008193F000810
:10007000193F0008193F0008193F0008193F000800
:10008000193F0008193F0008193F00080000000050
:10009000000000000000000000000000193F000800
:1000A000193F0008C9090008193F0008193F000856
:1000B000193F0008193F0008193F0008193F0008C0
:1000C000193F0008193F0008193F0008D909000826
:1000D000193F0008193F0008193F00080000000000
:1000E000193F0008193F0008193F000800000000F0
:1000F000000000000000000000000000193F0008A0
:1001000000000000193F0008193F0008193F0008CF
:1001100000000000000000000000000000000000DF
:10012000193F0008193F0008193F0008E9090008B5
:10013000193F00080000000000000000000000005F
:10014000000000000000000000000000193F00084F
:10015000193F0008193F0008193F0008193F00081F
:10016000193F0008193F00080000000000000000CF
:10017000000000000000000000000000000000007F
:1001800000000000193F000800000000000000000F
:04019000193F00080B
:1001A00010B5054C237833B9044B13B10448AFF3B1
:1001B00000800123237010BD180000200000000003
:1001C00024400008084B10B51BB108490848AFF39C
:1001D00000800848036803B910BD074B002BFBD013
:1001E000BDE81040184700BF000000001C000020C0
:1001F00024400008180000200000000053B94AB94C
:10020000002908BF00281CBF4FF0FF314FF0FF301E
:1002100000F07EB9ADF1080C6DE904CE00F006F8EF
:10022000DDF804E0DDE9022304B070472DE9F04772
:100230008C460E460446089D002B50D18A42174634
:100240006CD9B2FA82FEBEF1000F0BD0CEF12004C1
:1002500020FA04F401FA0EF644EA060C02FA0EF74C
:1002600000FA0EF44FEA1749220CBCFBF9F01FFA12
:1002700087F809FB10C642EA064600FB08F3B342C2
:1002800009D9F61900F1FF3280F02281B34240F221
:100290001F8102383E44F61AA2B2B6FBF9F309FBFD
:1002A000136642EA064403FB08F8A04509D9E4199D
:1002B00003F1FF3280F00A81A04540F20781023B42
:1002C0003C44C8EB040443EA00400021002D62D006
:1002D00024FA0EF400232C606B60BDE8F0878B429B
:1002E00007D9002D55D0002185E841000846BDE81A
:1002F000F087B3FA83F1002940F09080B34202D333
:10030000824200F2F880841A66EB03060120B446AC
:10031000002D40D085E81010BDE8F08712B9012704
:10032000B7FBF2F7B7FA87FEBEF1000F35D1F31B2A
:100330004FEA17481FFA87FC0121B3FBF8F0220CA3
:1003400008FB103642EA06460CFB00F3B34207D91D
:10035000F61900F1FF3202D2B34200F2CE8010460D
:10036000F61AA2B2B6FBF8F308FB136642EA06449B
:100370000CFB03FCA44507D9E41903F1FF3202D2B8
:10038000A44500F2B5801346CCEB040443EA0040D8
:100390009CE729462846BDE8F087CEF1200106FA01
:1003A0000EF307FA0EF720FA01F94FEA1748CE408C
:1003B00049EA0309B6FBF8FA4FEA194408FB1A6642
:1003C0001FFA87FC44EA06430AFB0CF29A4200FA41
:1003D0000EF40AD9DB190AF1FF3180F087809A42C6
:1003E00040F28480AAF1020A3B449B1A1FFA89F961
:1003F000B3FBF8F108FB113349EA034301FB0CF6A8
:100400009E4207D9DB1901F1FF326BD29E4269D9B6
:1004100002393B449B1B41EA0A418EE7C1F1200EA1
:1004200022FA0EF48B40234320FA0EF706FA01F469
:100430004FEA134C26FA0EF63C43B6FBFCF9270CA8
:100440000CFB19661FFA83F847EA064609FB08F712
:10045000B74202FA01F200FA01FA08D9F61809F1D6
:10046000FF3041D2B7423FD9A9F102091E44F61B21
:10047000A0B2B6FBFCF40CFB146640EA064704FB92
:1004800008F8B84507D9FF1804F1FF3028D2B8455D
:1004900026D9023C1F4444EA0940C8EB0707A0FBE9
:1004A00002894F4544464E4614D329D065B3BAEB72
:1004B000040367EB060707FA0EFECB40CF404EEA77
:1004C000030385E888000021BDE8F0871346F8E6BD
:1004D0001046E0E6B8EB020469EB03060138E5E7F5
:1004E0000446D8E7114695E78146C0E78A467CE78F
:1004F000023B3C4448E708460AE702383E442FE7FF
:10050000C245E7D33E46D1E72946BDE8F08700BFA4
:10051000704700BF2DE9F0418AB00024059406948D
:100520000794089409940194304B1A6B42F004022A
:100530001A631A6B02F004020192019A02941A6B78
:1005400042F080021A631A6B02F080020292029A51
:1005500003941A6B42F001021A631A6B02F0010253
:100560000392039A04941A6B42F002021A631B6B03
:1005700003F002030493049B1D4E22464FF40051E6
:10058000304601F007FFDFF87080224640214046E8
:1005900001F000FF174D01221146284601F0FAFE36
:1005A00022460221284601F0F5FE4FF40053059340
:1005B000012706970794089405A9304601F014FE18
:1005C00040230593069707940326089605A94046FD
:1005D00001F00AFE059606970794089605A9284695
:1005E00001F002FE0AB0BDE8F08100BF0038024011
:1005F00000080240000402400000024000B583B041
:1006000000220192094B196B41F4800119631B6BA5
:1006100003F480030193019B05213B2002F0A0F825
:100620003B2002F0CFF803B05DF804FB0038024035
:1006300008B5012003F088F9FBE700BF08B50268A0
:10064000024B9A4201D102F0E5F808BD00000140DA
:1006500072B6FEE708B50D480D4B03604FF4827388
:10066000436000238360C360036143614FF4007201
:100670008261C3610362436283620A23C36202F040
:1006800007FB08B1FFF7E4FF08BD00BFD843002017
:100690000030014000B595B03022002108A803F0D9
:1006A0007CFC002303930493059306930793019323
:1006B000204A116C41F080511164126C02F080529A
:1006C0000192019A02931C4A136823F4404343F4B5
:1006D00000431360136803F440430293029B012319
:1006E00008934FF48033099302230E934FF4800252
:1006F0000F9219221092A82211921293042313939D
:1007000008A801F025FA08B1FFF7A2FF0F23039311
:1007100002210491002305934FF48052069207931F
:1007200003A801F079FC08B1FFF792FF15B05DF85E
:1007300004FB00BF003802400070004030B589B0B3
:1007400002F04EF8FFF7A6FFFFF7E4FEFFF782FF87
:10075000FFF754FF01AC094D0FCD0FC495E807001A
:1007600084E80700002101A803F0B8F8044B1860E2
:1007700003F0AEF800F0E0F8FCE700BF3C400008F2
:100780009044002010B586B03249334800F028FD6F
:10079000324B1A68324B83FB0213A3EBE27303EB79
:1007A0004303D31A06D12F4B0D2200212A4800F013
:1007B000DDFC10E0012B06D12B4B0D220021264839
:1007C00000F0D4FC07E0022B05D1284B0D220021BC
:1007D000214800F0CBFC204C254B0D225021204617
:1007E00000F0C4FC00230193029303930493059348
:1007F0000A2201A91F4B186803F0CDFB01AB0D22A3
:100800006821204600F0B2FC1B4B212250212046DB
:1008100000F0ACFC194B21225E21204600F0A6FC22
:10082000174B2E225021204600F0A0FC154B2E2203
:100830005E21204600F09AFC134B3B2250212046BB
:1008400000F094FC114B3B225E21204600F08EFC10
:1008500006B010BD58460008944400200000002057
:100860005655555564400008704000087C4000080B
:1008700088400008040000209040000894400008D0
:10088000984000089C400008A0400008A4400008D0
:1008900030B589B00446254D2549284600F0A0FC16
:1008A0000023039304930593069307930A2203A955
:1008B000204603F070FB03AB32221421284600F0DF
:1008C00055FC092C0EDC1B4B32222321284600F05C
:1008D0004DFC0F230093022323222221284600F0FF
:1008E00071F920E0632C0FDC104C124B32222D21C9
:1008F000204600F03BFC0F230093022323222C21EF
:10090000204600F05FF90EE0084C0A4B32223721F6
:10091000204600F02BFC0F230093022323223621D4
:10092000204600F04FF909B030BD00BF94440020CC
:10093000C4400008A840000808B54FF47A7001F0E0
:100940007BFF174801F06EF84FF47A7001F074FFE6
:10095000134800F085F8FFF715FF124C2068FFF7E9
:1009600097FF2168104B1B68994209DA0F4B83FBF4
:1009700001230B44CA17C2EBA31301330B442360BA
:100980004FF47A7001F058FF064B1B68B3F5967F61
:1009900002DD0122034B1A60014800F06FF8D7E72F
:1009A000944400200000002004000020EBA00EEA88
:1009B000FEE700BFFEE700BFFEE700BFFEE700BFA7
:1009C000FEE700BF704700BF08B5024801F08EFF88
:1009D00008BD00BF2C45002008B5024802F094FA7B
:1009E00008BD00BFD843002008B5024801F0BAFD99
:1009F00008BD00BF30440020034AD2F8883043F4D9
:100A00007003C2F88830704700ED00E010B582B086
:100A100003681B7C446B03FB01F1C90089B22144CC
:100A20000091002100F044FF02B010BD2DE9F0411B
:100A3000064690F8387090F83950036893F81180A2
:100A400000242A4621463046FFF7E0FF0134E4B295
:100A50000135EDB2A74201D9A845F2D8BDE8F08131
:100A600008B503681B7C90F8382003FB02F2D20023
:100A70000021406B03F091FA08BD00BF10B5044699
:100A8000FFF7D4FF204600F03DFF10BD2DE9F843ED
:100A90000746894690461D46BDF820609DF82440D3
:100AA00014F0010F0ED0B21A591892B289B200F0A8
:100AB00035FCC9EB060205EB080192B289B2384653
:100AC00000F02CFC14F0020F11D0C8EB0602C9EBA9
:100AD000050192B289B2384600F020FCC9EB06024B
:100AE000C8EB050192B289B2384600F017FC14F049
:100AF000080F11D006EB080205EB090192B289B28A
:100B0000384600F00BFC09EB060205EB080192B237
:100B100089B2384600F002FC14F0040F11D006EB45
:100B20000802C9EB050192B289B2384600F0F6FB23
:100B300009EB0602C8EB050192B289B2384600F013
:100B4000EDFBBDE8F88300BF2DE9F04F85B00390C1
:100B5000894692461F469DF838B0C3F101080FFA46
:100B600088F85D42ADB26D002DB2CDF804B00092B0
:100B70000B463A460021FFF789FF002601241CE0BE
:100B8000B8F1000F07DB013FBFB20235ABB21DB2B7
:100B900098440FFA88F80136B6B20234A3B21CB2F8
:100BA00098440FFA88F8CDF804B0CDF800A04B4671
:100BB0003A4631460398FFF769FFBE42E0D305B0DD
:100BC000BDE8F08F2DE9F04182B080460E46174611
:100BD0001D46CB180133521B491BEC190134A4B23A
:100BE00000949BB292B289B200F0CAFB40B19DF86A
:100BF000203000932B463A4631464046FFF7A4FF8B
:100C000002B0BDE8F08100BF0823037000487047C0
:100C10003400002030B585B004460D4600931346DD
:100C2000084A094900F092FE0DF10F00FFF7ECFFB2
:100C30009DF80F200095054B0146204600F092FCE0
:100C400005B030BDB916000801180008B51300083A
:100C5000405C70474318405C5B7803EB002080B237
:100C6000704700BF0020704738B504460D4600218C
:100C70002846FFF7EDFF207001212846FFF7E8FF27
:100C8000607002212846FFF7E3FFA0700321284689
:100C9000FFF7DEFFE07004212846FFF7D9FF20713F
:100CA00005212846FFF7D4FF607106212846FFF78B
:100CB000CFFFA07107212846FFF7CAFFE071082186
:100CC0002846FFF7C5FF207209212846FFF7C0FF1D
:100CD00060720A212846FFF7BBFFA0720B2128464D
:100CE000FFF7B6FFE0720C212846FFF7B1FF207333
:100CF0000D212846FFF7ACFF60730E212846FFF751
:100D0000A7FFA0730F212846FFF7A2FFE073102171
:100D10002846FFF79DFF207411212846FFF79AFF10
:100D2000608213212846FFF795FFA08215212846EF
:100D3000FFF790FFE08238BD70B4027B05682C7825
:100D40001441E6B25318DBB2072B0BD9C2F10802EB
:100D5000D2B26E1C06606D7805FA02F21443E6B258
:100D6000083BDBB2012404FA01F10139037306EAFE
:100D7000010070BC704700BF38B5044600F1600543
:100D80000166002380F86C3090F878102846FFF751
:100D9000D3FF84F86A0094F879102846FFF7CCFF57
:100DA00084F86B0094F8923084F86E30B3FA83F3D1
:100DB0005B0984F86F3038BD10B50C46FFF7BCFFF7
:100DC000013CE4B20123A340C01A40B210BD00BFF1
:100DD000012B06D013B1022B06D008E0104480B2DC
:100DE0007047084480B27047801A80B27047401A3A
:100DF00080B27047012B06D013B1022B06D008E059
:100E0000084480B27047801A80B27047401A80B29E
:100E10007047104480B270472DE9F04F87B0064606
:100E20000C46059290F868A090F8698096F86A5090
:100E3000CAEB0505EDB2AC4201D3039500E0039483
:100E4000B6F866904FFA8AF14FFA88FB96F8707000
:100E50003B465A460291B6F86400FFF7CBFF049078
:100E60003B465A4602994846FFF7B2FF059B63B1DD
:100E700096F86E3086F892300097BDF80C30024636
:100E80000499304600F0E8F90EE096F86D305BB951
:100E900096F86F3086F892300097BDF80C30024615
:100EA0000499304600F0D8F9AC4208D3641BE4B290
:100EB00008F101085FFA88F84FF0000AB6E75444D9
:100EC00086F8684086F869B007B0BDE8F08F00BFCB
:100ED0002DE9F04F85B0044600F16005FFF74CFFA7
:100EE00094F96B6094F87A102846FFF765FF834603
:100EF00094F87B102846FFF75FFF074694F87C10B4
:100F00002846FFF759FF039094F96A90B9F1000F52
:100F10007CDD37447F427FB294F8708043463A4686
:100F20005946B4F86400FFF765FF8246A4F86400F0
:100F300043463A465946B4F86600FFF749FF024671
:100F4000A4F86600B8F1030F30D8DFE808F0020813
:100F500014240AEB09039BB2304480B227E0C6EBAD
:100F60000A0189B201310AF101039BB2484480B2FF
:100F70001FFA81FA1BE0C9EB0A0189B201310AF1BB
:100F800001039BB2871BBFB20137013290B2BAB2E4
:100F90001FFA81FA0BE00AEB06039BB2C9EB0001D2
:100FA00089B20131013290B28AB200E0534600901A
:100FB0005146204600F0E4F940B3002384F868303D
:100FC00084F8693094F876102846FFF7B5FE80461D
:100FD00094F877102846FFF7AFFE074600224146F7
:100FE0002046FFF719FF012239462046FFF714FF7C
:100FF00001212846FFF7A0FE0028EFD194F96930BF
:101000009E42DFDC94F86E3084F89230039805B08D
:10101000BDE8F08F70B5846D1734FF2913D86029AF
:1010200003D9B0F888301C4404E0402902D9B0F854
:1010300086301C4463781BB32278914201D1A01CF6
:1010400070BD1C44F6E70E46B0F88A301C442546B5
:1010500000212846FFF7FEFD044402212846FFF741
:10106000F9FD04358642F3D82278637853EA0223E7
:1010700008D09E4201D1E01C70BDA3781C44F3E768
:10108000002070BD002070BD10B50446A0F86410AB
:10109000A0F866201946FFF7BDFF28B1014620469B
:1010A000FFF716FF80B210BD002010BDF8B5044652
:1010B0000D4616461F4690F87030032B16D8DFE811
:1010C00003F002070C11C36D9847304486B20DE05F
:1010D000C36D9847281A85B208E0C36D9847301A47
:1010E00086B203E0C36D9847284485B23B4632463A
:1010F00029462046FFF7C8FFF8BD00BF2DE9F041A3
:1011000004460F4616461D4600F058FA4FF00008F8
:1011100063682978204698474FF6FF73984221D09C
:1011200001354FF6FE739842F2D0034632463946F7
:101130002046FFF7BBFF94F87030032B0ED8DFE892
:1011400003F00205080B0744BFB207E00644B6B23D
:1011500004E03F1ABFB201E0361AB6B240441FFAAB
:1011600080F8D5E74046BDE8F08100BF10B5024CDD
:101170004460FFF7C3FF10BDA5150008836D43B39E
:1011800090F9811080F88E1090F9822080F88F20DD
:1011900090F88D30EBB1012B0CD190F9833099424E
:1011A00001DA80F88E3090F984309A4211DD80F8AF
:1011B0008F30704730B490F97E4090F98030E51858
:1011C000A94201DA80F88E509A4201DD80F88F3012
:1011D00030BC7047014BC365704700BF650C000809
:1011E000836D8B4209D010B5044681657430FFF7DA
:1011F0003BFD2046FFF7C2FF10BD704730B40588A5
:101200000C882C44A4B2A54205D99D4202D25C1E92
:10121000A4B200E015469D420CD294420CD99542EE
:1012200000D32A469C4200D8234602809B1A0B809A
:10123000012002E0002000E0002030BC704700BF29
:1012400030B583B0C48F121BC46A9DF81850009546
:1012500092B2A04703B030BD70B584B09DF8205065
:10126000ADF80E10ADF80C20ADF80A3090F88C30C7
:10127000002B50D0BDF80A30002B4CD0012B11D9D7
:10128000022D06D18AB2D31A9BB20133ADF80E30CB
:1012900008E0032D06D1BDF80C20D31A9BB2013310
:1012A000ADF80C30044615F0010515D1B0F84C200E
:1012B000BDF80C309A422ED8B0F84E2093422AD274
:1012C000B0F84A30B0F848200DF10A010DF10E00D7
:1012D000FFF794FFA0B91EE0B0F84820BDF80E302B
:1012E0009A4218D8B0F84A20934214D2B0F84E303F
:1012F000B0F84C200DF10A0103A8FFF77FFF50B1B1
:10130000236B9E68BDF80A30BDF80C20BDF80E10A6
:1013100000952046B04704B070BD00BFB0F84C3017
:10132000934215D8B0F84E309A4211D2B0F84830F6
:101330008B420DD8B0F84A30994209D200B583B03B
:10134000002300930123FFF787FF03B05DF804FB40
:10135000704700BF8A4205D2834209D89A4209D910
:1013600001207047834207D99A4207D9012070476C
:101370000120704700207047002070470020704710
:1013800070B504460D461E46BDF81030B0F84E103C
:10139000B0F84C00FFF7DEFF034640B133462A4663
:1013A000B4F84A10B4F84800FFF7D4FF03461846D3
:1013B00070BD00BFF0B59DF814E002F007040125F0
:1013C000A540EDB290F89270012F01D9002600E0FF
:1013D0002E46012F00D1002522F0070292B20768A5
:1013E0003F7C17FB02F292B2476B11443944BEF1C5
:1013F000000F0AD10A783243D2B26A4001F8012BB9
:10140000013B9BB2002BF5D1F0BD0A783243D2B23A
:101410006A400A70621C013B9BB212F0070409D1BA
:10142000428F114490F89220012A00D80126012A07
:1014300005D105E07600F6B26D00EDB200E00125C1
:10144000002BE2D1F0BD00BFF0B4026890F8386024
:10145000B3B2D9008187147CE400448790F8391036
:101460008FB2FC00C4873144557CA94201DDEB1BDF
:101470009BB2DB009BB2A0F840402344A0F842306E
:10148000938AA0F84430D38AA0F84630F0BC704765
:1014900008B5FFF7D9FF08BD30B583B00446B0F8F2
:1014A0005230B0F85420B0F85010B0F856500095B3
:1014B000FFF766FF18B9002384F88C3022E001237F
:1014C00084F88C30B4F84820B4F850309A4201D2F5
:1014D000A4F84830B4F84A20B4F852309A4201D9FE
:1014E000A4F84A30B4F84C20B4F854309A4201D2EF
:1014F000A4F84C30B4F84E20B4F856309A4201D9D2
:10150000A4F84E3003B030BD08B50022A0F8482042
:10151000B0F84420A0F84A20B0F84020A0F84C20B1
:10152000B0F84220A0F84E20FFF7B6FF08BD00BF7C
:1015300010B582B09DF810400094FFF781FE02B014
:1015400010BD00BF08B50022A0F85020A0F854201C
:101550004FF6FF72A0F85220A0F85620036B5B688C
:10156000984708BD70B50446049E00258565C36292
:10157000416380F8382080F8395080F86D5080F849
:101580009150012380F8923080F8933006633368DD
:1015900098472046FFF7D6FF2046FFF71BFE84F84A
:1015A000705070BD19B10A2904D088B270474FF647
:1015B000FF7070474FF6FF70704700BF002380F840
:1015C0002630704710B5046900230A462021A04741
:1015D00010BD00BF10B5046913460A461721A04785
:1015E00010BD00BF00B583B002AA02F8011D0121A1
:1015F000FFF7F0FF03B05DF804FB00BF10B5C4684F
:1016000000230A461521A04710BD00BF10B5C468CD
:1016100000230A461621A04710BD00BF10B5C468BC
:1016200013460A461721A04710BD00BF10B5C46875
:1016300000231A461821A04710BD00BF10B5C4688A
:1016400000231A461921A04710BD00BF70B582B013
:1016500005460C4614F8011B172911D002D815298C
:1016600005D226E0192915D9FE2919D021E014F850
:10167000012B8DF80720EE6800232846B047E9E7E4
:1016800014F8013B02AA02F8013D01212846FFF7A8
:10169000C5FFDFE7EE6800231A462846B047D9E7C2
:1016A00014F8012B8DF807202921284600F032F983
:1016B000D0E702B070BD00BF2DE9F04104460D46F1
:1016C00016469846A1F11403052B23D8DFE803F052
:1016D0001A030D171A1A0021FFF774FF314620462E
:1016E000FFF780FF0120BDE8F0810021FFF76AFFCE
:1016F00031462046FFF776FF0120BDE8F081012149
:10170000FFF760FF27694346324629462046B8471F
:10171000BDE8F0810020BDE8F08100BFF8B50546C6
:1017200014461E460B39042960D8DFE801F0035F38
:101730000E21300022B92E49FFF788FF0120F8BDA5
:101740002C49FFF783FF0120F8BD42B92A49FFF772
:101750007DFF2B689B7C85F822300120F8BD27494E
:10176000FFF774FF2B68DB7C85F822300120F8BD81
:10177000FFF75CFF81212846FFF740FF21462846FE
:10178000FFF744FF2846FFF759FF0120F8BDFFF798
:101790004DFF7779FF00FFB295F822301F44FFB26A
:1017A00040212846FFF72AFF390941F01001284659
:1017B000FFF724FF07F00F012846FFF727FFB17955
:1017C00041F0B0012846FFF721FF3179C9003268A6
:1017D00001F0F8012846FFF721FF621E12F0FF0416
:1017E000F3D12846FFF72AFF0120F8BD0020F8BDFD
:1017F000844A00088C4A0008AC4A0008EC4A0008F9
:1018000038B505460C46FFF789FF98B90346092C01
:101810000AD00A2C0FD1284600F01AF807492846AA
:10182000FFF714FF012306E00549284600F00AF8F7
:10183000012300E00123184638BD00BFB44A000868
:10184000944A000801608B7C80F82230704700BF0A
:1018500038B50446456900231A462821A847E5689B
:1018600000231A4614212046A84701224B21204676
:1018700000F050F823681A792921204600F04AF830
:1018800000224B21204600F045F823681A792921CF
:10189000204600F03FF801224B21204600F03AF8A4
:1018A00023685A792921204600F034F838BD00BF5A
:1018B00010B582B08DF805108DF806208DF8043033
:1018C00002AB049A43F8082D846801220F21A04737
:1018D00002B010BD10B5846800231A460921A04744
:1018E00010BD00BF10B5846800231A460A21A04726
:1018F00010BD00BF10B5846800230A460B21A04725
:1019000010BD00BF10B5846800231A461021A047FF
:1019100010BD00BF10B544690023A04710BD00BF33
:101920000020704700230360074A8260C2600261A2
:10193000426180F8233080F826308361FF2380F8ED
:10194000243080F82830704721190008F8B5044683
:101950000F4616461D46FFF7E5FFA760E6602561C6
:10196000069B63612046FFF7B5FFF8BD08B5184632
:1019700014390C2908D8DFE801F0170707091717F1
:101980000707070707071100002008BD4FF47A7307
:101990000146074801F0DEF940B908BD402105487D
:1019A00000F0F8FC012008BD012008BD012008BDA1
:1019B000D84300200000024010B5144628392329DE
:1019C00029D8DFE801F012162828282828282828F6
:1019D0002828282828282828282828282828282887
:1019E000282828282828281A1E24012000F024FF4F
:1019F00011E0104600F020FF0DE00221074800F042
:101A0000C9FC22464021064800F0C4FC03E0012145
:101A1000024800F0BFFC012010BD00BF00040240DE
:101A20000000024010B50446064B074A0749FFF77D
:101A3000F1F82046FFF756FF00212046FFF75AFF36
:101A400010BD00BFB91900086D190008784A0008D8
:101A500000B583B0002200920D4B596C41F48041D7
:101A60005964596C01F48041009100990192196CFC
:101A700041F0805119641B6C03F080530193019B6A
:101A80000F216FF0010000F06BFE03B05DF804FB66
:101A90000038024030B589B00023039304930593C6
:101AA000069307930268264B9A4246D104460025C6
:101AB000019503F584335A6C42F480525A645A6C8F
:101AC00002F480520192019A02951A6B42F00102CF
:101AD0001A631B6B03F001030293029BA023039381
:101AE00002230493032306930523079303A91548B0
:101AF00000F07AFB1448154B03604FF0C06343605D
:101B000040238360C5604FF4806303614561856154
:101B1000C5614FF400330362456200F0A7FC08B1D1
:101B2000FEF796FD084BA3649C6300220521232049
:101B300000F016FE232000F045FE09B030BD00BFC6
:101B40000030014000000240304400205864024050
:101B5000002800F0DD8170B582B00446036813F000
:101B6000010F5AD0A04B9B6803F00C03042B0AD042
:101B70009D4B9B6803F00C03082B0DD19A4B5B68BF
:101B800013F4800F08D0984B1B6813F4003F44D027
:101B90006368002B41D1BDE16368B3F5803F05D197
:101BA000914A136843F48033136015E0B3F5A02F16
:101BB00009D18D4B1A6842F480221A601A6842F4E7
:101BC00080321A6008E0884B1A6822F480321A606A
:101BD0001A6822F480221A6063687BB100F026FE46
:101BE000054605E000F022FE401B642800F29481C7
:101BF0007D4B1B6813F4003FF4D00EE000F016FE9E
:101C0000054605E000F012FE401B642800F28681C4
:101C1000754B1B6813F4003FF4D1236813F0020FD7
:101C200050D0714B9B6813F00C0F0AD06E4B9B6821
:101C300003F00C03082B16D16B4B5B6813F4800F79
:101C400011D1694B1B6813F0020F03D0E368012B1D
:101C500040F06681644A136823F0F803216943EA7F
:101C6000C10313602EE0E368D3B101225F4B1A6019
:101C700000F0DCFD054605E000F0D8FD401B022821
:101C800000F25081584B1B6813F0020FF4D0564AF3
:101C9000136823F0F803216943EAC103136011E0DC
:101CA0000022524B1A6000F0C1FD054605E000F02D
:101CB000BDFD401B022800F237814B4B1B6813F01F
:101CC000020FF4D1236813F0080F26D0636993B193
:101CD0000122474B1A6000F0A9FD054605E000F01F
:101CE000A5FD401B022800F221813F4B5B6F13F0E2
:101CF000020FF4D011E000223D4B1A6000F096FD77
:101D0000054605E000F092FD401B022800F210811C
:101D1000354B5B6F13F0020FF4D1236813F0040FFF
:101D20007DD0314B1B6C13F0805F0DD100230193EC
:101D30002D4B1A6C42F080521A641B6C03F08053D6
:101D40000193019B012500E000252A4B1B6813F439
:101D5000807F13D1274A136843F48073136000F027
:101D600065FD064605E000F061FD801B022800F2DB
:101D7000E180204B1B6813F4807FF4D0A368012B13
:101D800005D1194A136F43F00103136714E0052BC3
:101D900009D1154B1A6F42F004021A671A6F42F00C
:101DA00001021A6708E0104B1A6F22F001021A674D
:101DB0001A6F22F004021A67A3688BB100F036FD97
:101DC000064607E000F032FD801B41F2883398425E
:101DD00000F2B280044B1B6F13F0020FF2D018E038
:101DE00000F024FD06460FE00038024000004742A4
:101DF000800E47420070004000F018FD801B41F249
:101E00008833984200F29A80594B1B6F13F0020FEF
:101E1000F2D125B1564A136C23F080531364A369A1
:101E2000002B00F08D80524A926802F00C02082AC2
:101E300048D0022B33D100224E4B1A6000F0F6FC42
:101E4000054604E000F0F2FC401B02287AD8484B1B
:101E50001B6813F0007FF5D1E269236A1343626ABD
:101E600043EA8213A26A5208013A43EA0243E26A51
:101E700043EA02633E4A536001223E4B1A6000F07F
:101E8000D5FC044604E000F0D1FC001B02285BD81E
:101E9000374B1B6813F0007FF5D0002065E000226F
:101EA000344B1A6000F0C2FC044604E000F0BEFCB3
:101EB000001B02284AD82E4B1B6813F0007FF5D177
:101EC000002052E0012B43D0294A526842D002F44C
:101ED0008003E1698B423FD102F03F03216A8B42CC
:101EE0003CD1616A47F6C0731340B3EB811F37D111
:101EF00002F44031A36A5B08013BB1EB034F31D1DF
:101F000002F07062E36AB2EB036F2DD001202CE087
:101F100001207047012028E0032026E0032024E070
:101F2000012022E0032020E003201EE003201CE02B
:101F300003201AE0032018E0032016E0032014E039
:101F4000002012E0032010E003200EE003200CE04C
:101F500001200AE0012008E0012006E0012004E061
:101F6000012002E0012000E0002002B070BD00BFAF
:101F7000003802406000474238B5244B9B6803F0AC
:101F80000C03042B3FD0082B01D0214838BD1F4B38
:101F90005A6802F03F025B6813F4800F0AD01B4BB3
:101FA0005968C1F3881100231A48A1FB0001FEF70C
:101FB00025F91FE0154B5B68C3F38813DC0000258F
:101FC000690141EAD4616001041B61EB0505A901C7
:101FD00041EA9461A001001B61EB0501C01841F1C9
:101FE00000018B0243EA90538402204619460023E5
:101FF000FEF704F9054B5B68C3F3014301335B0053
:10200000B0FBF3F038BD034838BD00BF00380240D4
:102010000024F40040787D01002800F0988070B51D
:102020000446524B1B6803F007038B4208D2CBB225
:102030004E4A1370136803F00703994240F08980F9
:10204000236813F0020F17D013F0040F04D0484A8E
:10205000936843F4E0539360236813F0080F04D0AF
:10206000434A936843F4604393604148836823F094
:10207000F002A368134383600D46236813F0010F39
:102080002FD06268012A05D1394B1B6813F4003F39
:102090000ED160E0931E012B05D8354B1B6813F061
:1020A000007F05D159E0324B1B6813F0020F56D068
:1020B0002F498B6823F0030313438B6000F0B6FBBA
:1020C000064606E000F0B2FB801B41F288339842DE
:1020D00047D8274B9B6803F00C036268B3EB820F71
:1020E000F0D1224B1B6803F007039D4207D2EAB2EE
:1020F0001E4B1A701B6803F007039D4233D12368FF
:1021000013F0040F06D01A498B6823F4E052E368F9
:1021100013438B60236813F0080F07D0144A9368A9
:1021200023F46043216943EAC1039360FFF724FF6E
:102130000F4B9B68C3F303130E4AD35CD8400E4B7E
:1021400018600E4B186800F07FFF002070BD012062
:102150007047012070BD012070BD012070BD0120BD
:1021600070BD032070BD012070BD00BF003C024067
:1021700000380240AC400008080000200C0000209D
:10218000014B1868704700BF0800002008B5FFF732
:10219000F7FF044B9B68C3F34233034AD35CD84038
:1021A00008BD00BF00380240BC4000080F23036098
:1021B0000B4B9A6802F0030242609A6802F0F00248
:1021C00082609A6802F4E052C2609B68DB0803F404
:1021D000E0530361034B1B6803F007030B60704778
:1021E00000380240003C0240F0B583B00023C3E059
:1021F00001229A400C6802EA0405AA4240F0BB8022
:102200004C6804F00304013C012C15D887684FEAA0
:10221000430E032606FA0EF627EA0606CC6804FAF1
:102220000EF434438460446824EA02024C68C4F328
:1022300000149C40224342604A6802F00302032AD1
:1022400009D0C6685F000324BC4026EA04048A68FB
:10225000BA402243C2604A6802F00302022A0FD148
:10226000DC08083450F8247003F0070296000F22AF
:10227000B24027EA02070A69B2403A4340F82420F4
:1022800004685F000326BE4024EA06064A6802F09E
:10229000030404FA07F2324302604A6812F4403F32
:1022A00069D000220192374A546C44F4804454644B
:1022B000526C02F480420192019A9E08B41C324A88
:1022C00052F8244003F0030292000F27974024EABB
:1022D00007072E4CA04211D004F58064A0420FD015
:1022E00004F58064A0420DD004F58064A0420BD0B8
:1022F00004F58064A04209D1042408E0002406E02B
:10230000012404E0022402E0032400E0072404FA8C
:1023100002F23A4302361C4C44F826201C4A146848
:10232000EA4304EA02064F6817F4803F01D045EA09
:102330000406174C2660646802EA04064F6817F426
:10234000003F01D045EA0406114C6660A46802EA29
:1023500004064F6817F4801F01D045EA04060C4CB0
:10236000A660E46822404E6816F4001F01D045EADA
:102370000402074CE26001330F2B7FF639AF03B044
:10238000F0BD00BF003802400038014000000240AC
:10239000003C01400AB181617047090481617047C6
:1023A0000268D3B2103B0B49A1FB03131B090A4976
:1023B000C95CC165032B06D922F47F7222F00302A7
:1023C0000432826504E022F47F7222F00302826507
:1023D000806D7047ABAAAAAAF44A0008836A826992
:1023E00082B9012B08D00BB1022B2ED1C36A13F096
:1023F000807F2CD100207047C36AB3F1C07F28D002
:1024000000207047B2F5005F13D1032B03D8DFE83B
:1024100003F02204220A00207047C36A13F0807F71
:102420001BD100207047C36AB3F1C07F17D00020D2
:102430007047022B15D9032B01D000207047C36AC7
:1024400013F0807F0FD100207047002070470120DB
:10245000704701207047012070470120704701201C
:102460007047012070470120704700BF70B50446D7
:1024700000F0DCF9002C5CD00546022384F83530EE
:10248000002384F834302268136823F001031360BA
:102490000AE000F0CBF9401B052805D9202363652D
:1024A000032084F8350070BD23681A6812F0010F0C
:1024B000EFD11A68204810406168A2681143E268B1
:1024C00011432269114362691143A2691143E26910
:1024D0000A43216A114340EA0102616A042903D1D7
:1024E000E06A216B01430A431A602668756925F08A
:1024F0000705636A1D43042B0DD1A36A1D43E36ADC
:102500004BB12046FFF76AFF28B1402363650120E5
:1025100084F8350070BD75612046FFF741FFE26D1C
:102520003F239340836000206065012384F83530A9
:1025300070BD012070BD00BF3F8010F090F83530B5
:10254000DBB2022B03D080234365012070470523B3
:1025500080F835300268136823F00103136000200F
:10256000704700BFF0B583B0044600230193714B60
:102570001B68714DA5FB0335AD0A876D3E68C26DC2
:10258000082393401E4210D003681A6812F0040F0B
:102590000BD01A6822F004021A60C26D082393401F
:1025A000BB60436D43F001034365E26D012393403B
:1025B0001E4209D02268526912F0800F04D0BB601D
:1025C000636D43F002036365E26D042393401E4292
:1025D00009D02268126812F0020F04D0BB60636D4C
:1025E00043F004036365E26D102393401E4224D040
:1025F0002268126812F0080F1FD0BB6023681A68A7
:1026000012F4802F0DD01B6813F4002F04D1236C1B
:102610009BB12046984710E0A36C73B120469847C1
:102620000BE01A6812F4807F03D11A6822F00802C6
:102630001A60236C0BB120469847E26D202393402B
:102640001E4252D02268126812F0100F4DD0BB60AB
:1026500094F83530DBB2052B22D12268136823F0C1
:10266000160313602268536923F080035361236CBF
:102670000BB9A36C23B12268136823F0080313601D
:10268000E26D3F239340BB60012384F83530002383
:1026900084F83430236D002B49D02046984746E01B
:1026A00023681A6812F4802F0DD01B6813F4002FD2
:1026B00004D1636CCBB12046984716E0E36BA3B11D
:1026C0002046984711E01A6812F4807F09D11A68F1
:1026D00022F010021A60012384F83530002384F8B8
:1026E0003430E36B0BB120469847636DFBB1636DEB
:1026F00013F0010F17D0052384F8353022681368D2
:1027000023F001031360019B013301939D4204D325
:1027100023681B6813F0010FF5D1012384F83530CD
:10272000002384F83430E36C0BB12046984703B0A3
:10273000F0BD00BF08000020B5814E1B074AD368DA
:1027400023F4E0631B041B0C000200F4E060184358
:1027500040F0BF6040F40030D060704700ED00E012
:1027600030B4164BDB68C3F30223C3F10704042C17
:1027700028BF04241D1D062D01D9DD1E00E0002503
:10278000012303FA04F4013C2140A940AB40013B82
:102790001A400A43002808DB1201D2B200F160405F
:1027A00000F5614080F8002305E000F00F00120101
:1027B000D2B2034B1A5430BC704700BF00ED00E0AA
:1027C00014ED00E0002808DB420900F01F0001239F
:1027D00003FA00F0014B43F82200704700E100E0EB
:1027E00008B50B4B1A6842F400721A601A6842F47A
:1027F00080621A601A6842F480721A600320FFF740
:102800009DFF0F2000F020FCFFF722F9002008BDFB
:10281000003C0240034A1368034909780B441360E3
:10282000704700BF2845002010000020014B1868A9
:10283000704700BF2845002038B50446FFF7F6FF73
:102840000546B4F1FF3F02D0044B1B781C44FFF750
:10285000EDFF401B8442FAD838BD00BF10000020B5
:10286000704700BF90F83D30DBB2012B2FD102231F
:1028700080F83D300268D36843F00103D3600368F9
:10288000154A934212D0B3F1804F0FD0A2F57C428B
:1028900093420BD002F58062934207D002F580622A
:1028A000934203D002F59A3293420AD19A6802F019
:1028B0000702062A0DD01A6842F001021A600020B1
:1028C00070471A6842F001021A6000207047012028
:1028D00070470020704700BF00000140704700BFF4
:1028E000704700BF704700BF704700BF10B5044677
:1028F00003681A6912F0020F17D0DA6812F0020F9B
:1029000013D06FF002021A610123037703689B69F9
:1029100013F0030F02D0FFF7E3FF04E0FFF7DEFF41
:102920002046FFF7DFFF0023237723681A6912F0A0
:10293000040F19D0DA6812F0040F15D06FF00402FA
:102940001A610223237723689B6913F4407F03D025
:102950002046FFF7C5FF05E02046FFF7BFFF2046F2
:10296000FFF7C0FF0023237723681A6912F0080FCE
:1029700019D0DA6812F0080F15D06FF008021A614A
:10298000042323772368DB6913F0030F03D0204669
:10299000FFF7A6FF05E02046FFF7A0FF2046FFF760
:1029A000A1FF0023237723681A6912F0100F19D0B2
:1029B000DA6812F0100F15D06FF010021A610823B8
:1029C00023772368DB6913F4407F03D02046FFF7A9
:1029D00087FF05E02046FFF781FF2046FFF782FFD3
:1029E0000023237723681A6912F0010F09D0DA68EF
:1029F00012F0010F05D06FF001021A612046FDF7B9
:102A00001DFE23681A6912F0800F09D0DA6812F0EF
:102A1000800F05D06FF080021A61204600F09CF80C
:102A200023681A6912F0400F09D0DA6812F0400FDB
:102A300005D06FF040021A612046FFF755FF23686A
:102A40001A6912F0200F09D0DA6812F0200F05D0B1
:102A50006FF020021A61204600F07CF810BD00BF24
:102A60000368244A90420ED0B0F1804F0BD0A2F5FB
:102A70007C42904207D002F58062904203D002F57A
:102A80008062904203D123F070034A681343194ACD
:102A900090421AD0B0F1804F17D0A2F57C429042FC
:102AA00013D002F5806290420FD002F5806290420E
:102AB0000BD002F59A32904207D002F58062904224
:102AC00003D002F58062904203D123F44073CA68B8
:102AD000134323F080034A69134303608B68C36286
:102AE0000B688362034B984201D10B690363012396
:102AF000436170470000014048B310B5044690F8A8
:102B00003D3013F0FF0F04D1002380F83C30FFF775
:102B1000A7FE022384F83D30211D2068FFF7A0FFA7
:102B2000012384F8463084F83E3084F83F3084F83E
:102B3000403084F8413084F8423084F8433084F8DF
:102B4000443084F8453084F83D30002010BD012029
:102B5000704700BF704700BF704700BF2DE9F043CA
:102B600083B004460F4616461D46FFF75FFE0A9BDC
:102B7000181A00EB0508FFF759FE8146294B1B6820
:102B8000C3F3CB3303FB08F301933DE0B5F1FF3F03
:102B90003AD0FFF74BFEC9EB0000804502D9B8F1EF
:102BA000000F2AD12268536823F0E0035360636862
:102BB000B3F5827F0BD1A368B3F5004F02D0B3F514
:102BC000806F04D12268136823F040031360A36A66
:102BD000B3F5005F09D12268136823F40053136032
:102BE0002268136843F400531360012384F85130C2
:102BF000002384F85030032010E0019B0BB94FF004
:102C00000008019B013B019323689B6837EA03039B
:102C10000CBF01230023B342B8D1002003B0BDE8AC
:102C2000F08300BF0800002030B585B0164C246842
:102C3000164DA5FB0434640D4FF47A7505FB04F4BE
:102C400003944468B4F5827F0ED10B46044600928B
:102C500000228021FFF782FF034690B1636D43F0AD
:102C60002003636503230CE0039B4BB1039B013BF3
:102C7000039303689B6813F0800FF5D1002300E0F5
:102C80000023184605B030BD08000020819F5E1665
:102C900000285CD070B50446436A33B94368B3F585
:102CA000827F05D00023C36102E0002303614361FA
:102CB0000023A36294F8513013F0FF0F05D10023D5
:102CC00084F850302046FEF7E5FE022384F85130A8
:102CD0002268136823F0400313602168626802F4DD
:102CE0008272A56805F404452A43E36803F400638F
:102CF0001A43206900F002000243666906F00106EB
:102D00003243A56905F400752A43E06900F03800F4
:102D100042EA0003226A02F080021A43A36A03F423
:102D2000005313430B602168638B03F00402636A52
:102D300003F0100313434B602268D36923F400634C
:102D4000D36100206065012384F8513070BD0120FB
:102D5000704700BF2DE9F04182B090F85040012C3F
:102D600000F0CB801D46174688460446012380F8B4
:102D70005030FFF75BFD064694F85130DBB2012B73
:102D800040F0A580B8F1000F00F0A380002F00F004
:102D9000A280032384F8513000236365C4F8308097
:102DA000A786E786A363A387E38763642364A36896
:102DB000B3F5004F09D12268136823F04003136074
:102DC0002268136843F48043136023681A6812F082
:102DD000400F03D11A6842F040021A60E368B3F56D
:102DE000006F30D163680BB1012F27D12368226BAC
:102DF0001288DA60236B02332363E38E9BB2013BBC
:102E00009BB2E3861AE023689A6812F0020F0BD097
:102E1000226B1288DA60236B02332363E38E9BB24A
:102E2000013B9BB2E38609E0FFF700FD801BA8424F
:102E300002D3B5F1FF3F50D1002D50D0E38E9BB2AD
:102E4000002BE0D12EE063680BB1012F26D123685F
:102E5000226B12781A73236B01332363E38E9BB2C8
:102E6000013B9BB2E38619E023689A6812F0020FD7
:102E70000BD0226B12781A73236B01332363E28E1B
:102E800092B2013A92B2E28608E0FFF7CFFC801BD3
:102E9000854202D8B5F1FF3F23D125B3E28E92B22D
:102EA000002AE1D1324629462046FFF7BDFE08B18F
:102EB00020236365A36833B901932368DA6801921C
:102EC0009B680193019B636D7BB900200EE002209B
:102ED0000CE001200AE0012008E0032006E00320C6
:102EE00004E0032002E0032000E00120012384F835
:102EF0005130002384F8503000E0022002B0BDE8D9
:102F0000F08100BF704700BF10B584B0044602686E
:102F10005168936803F04100012806D111F0400F79
:102F200003D0236C2046984776E013F0020F06D0BA
:102F300011F0800F03D0636C204698476CE013F4C7
:102F4000B07F69D011F0200F66D013F0400F18D079
:102F500094F85100C0B203280BD0606D40F004001B
:102F6000606500200090D068009090680090009804
:102F700007E000230193D368019393680193019BB9
:102F80004AE013F0200F0CD0606D40F00100606546
:102F90000020029090680290106820F040001060BD
:102FA000029A13F4807F09D0636D43F008036365D0
:102FB0000023039323689B680393039B636D5BB3B8
:102FC0002268536823F0E0035360012384F85130F2
:102FD00011F0030F1DD02268536823F003035360E0
:102FE000E36C4BB10D4A1A65E06CFFF7A7FA18B114
:102FF000636D43F040036365A36C6BB1074A1A65C8
:10300000A06CFFF79BFA38B1636D43F04003636532
:1030100002E02046FFF776FF04B010BD2130000823
:1030200008B5806B0023C387C386FFF76BFF08BD1D
:10303000034B0360034B0B6080231360704700BF9A
:10304000340600203404002010B588B00022014668
:103050001920FFF785FB1920FFF7B4FB002401942A
:10306000134B5A6C42F001025A645B6C03F001038B
:103070000193019B02A903A8FFF798F8FFF786F8D0
:103080000C4BA3FB00239B0C013B0B480B4A02603B
:1030900040F2E732C260436004618460FFF72CFDB8
:1030A00018B90548FFF7DEFB00E0012008B010BDAD
:1030B0000038024083DE1B432C4500200000014005
:1030C00000F1080343604FF0FF328260C360036188
:1030D00000230360704700BF00230361704700BFF7
:1030E00043684B609A688A609A6851609960086189
:1030F000036801330360704730B40D68B5F1FF3FDA
:1031000001D1026907E000F1080200E01A465368A5
:103110001C68A542FAD253684B6099608A6051607E
:10312000086103680133036030BC7047036942687B
:10313000816891608268416851605A68904201D10B
:1031400082685A60002202611A68013A1A6018689F
:10315000704700BF084B1B681B6823B94FF0FF3254
:10316000064B1A607047044B1B68DB68DB685A68C3
:10317000024B1A60704700BF8806002064070020D9
:103180002DE9F04780469946089D099F0A9C236BCC
:1031900002F18042013A03EB820626F0070641B9AC
:1031A0000FE0D05CE11881F83400D15C29B1013323
:1031B00001E00A4600230F2BF3D9002384F84330A3
:1031C00002E0002384F83430062D00D90625E5629C
:1031D00065644FF0000AC4F848A0201DFFF77CFF8B
:1031E00004F11800FFF778FF2461C5F10705A56118
:1031F0006462C4F84CA084F850A04A464146304668
:1032000000F010FD206007B13C60BDE8F08700BF12
:1032100038B5002407E004EB840293000E481844FC
:10322000FFF74EFF0134062CF5D90C4D2846FFF769
:1032300047FF0B4C2046FFF743FF0A48FFF740FFCC
:103240000948FFF73DFF0948FFF73AFF084B1D60AB
:10325000084B1C6038BD00BFAC0600206C07002086
:1032600080070020480700209006002094070020D7
:1032700088060020A406002010B5044600F0FAFCE1
:10328000204A1368013313601F4B1B683BB91E4B68
:103290001C601368012B0DD1FFF7BAFF0AE01B4B2E
:1032A0001B683BB9184B1B68DA6AE36A9A4201D87B
:1032B000154B1C60164A136801331360E36A012240
:1032C00002FA03F1134802680A43026003EB830326
:1032D0009A00211D10481044FFF702FF00F0ECFC9B
:1032E0000A4B1B686BB1084B1B68DA6AE36A9A42A7
:1032F00007D24FF08052094B1A60BFF34F8FBFF3D4
:103300006F8F10BD40070020440700208C0600206E
:1033100068070020A8070020AC06002004ED00E0AC
:1033200010B5044690F8513033B9006B00F0FAFB49
:10333000204600F0F7FB10BD012B02D100F0F2FB9C
:1033400010BD022B08D04FF0500383F31188BFF358
:103350006F8FBFF34F8FFEE710BD00BF10B514E0B5
:1033600000F088FC0B4BDB68DC68201DFFF7DEFEFD
:10337000094A1368013B1360084A1368013B136054
:1033800000F09AFC2046FFF7CBFF044B1B68002B94
:10339000E6D110BD90060020400700203C07002029
:1033A00008B5FFF7DBFF064B1B68012BF9D94FF07F
:1033B0008052044B1A60BFF34F8FBFF36F8FF0E75B
:1033C000AC06002004ED00E070B504460E461D4B2F
:1033D0001D681D4B18680430FFF7A8FE50B91A4B42
:1033E0001B68DA6A012303FA02F218490B6823EA20
:1033F00002030B60B4F1FF3F07D136B1124B1968DD
:1034000004311348FFF76CFE70BD2C440E4B1B6853
:103410005C60A54207D90F4B18680B4B1968043143
:10342000FFF76AFE70BD0C4B1868074B1968043132
:10343000FFF762FE094B1B689C4201D2074B1C60E0
:1034400070BD00BF6007002044070020A8070020CF
:1034500094070020A40600208806002064070020AE
:1034600070B586B00B9D0C9C45B94FF0500383F3AB
:103470001188BFF36F8FBFF34F8FFEE744B94FF052
:10348000500383F31188BFF36F8FBFF34F8FFEE7B5
:1034900054260496049E542E08D04FF0500383F314
:1034A0001188BFF36F8FBFF34F8FFEE7049E8CB17F
:1034B00085B12563022584F85150002503950294B7
:1034C00005AD01950A9D0095FFF75AFE2046FFF7CE
:1034D000D3FE01E000230593059806B070BD00BF40
:1034E0002DE9F04385B006460F46154698469000F4
:1034F00000F090FA60B18146542000F08BFA044647
:1035000010B1C0F8309004E0484600F00BFB00E03A
:1035100000249CB1002384F85130039302940D9B46
:1035200001930C9B009343462A4639463046FFF7E9
:1035300027FE2046FFF7A0FE012001E04FF0FF30FC
:1035400005B0BDE8F08300BF10B588B00024059435
:10355000069407AA06A905A8FFF76AFD059B029332
:10356000069B019300942346079A0F490F48FFF7E3
:1035700077FF08B1012300E000239BB14FF0500317
:1035800083F31188BFF36F8FBFF34F8F4FF0FF327C
:10359000074B1A600122074B1A600022064B1A6083
:1035A00000F00AFC08B010BDFC4A0008A133000876
:1035B000640700208C06002060070020024A136880
:1035C00001331360704700BF38070020F8B53B4B4C
:1035D0001B68002B69D13A4B1D6801351D60C5B9C8
:1035E000384B1B681B6843B14FF0500383F31188BD
:1035F000BFF36F8FBFF34F8FFEE7324A1168324B34
:10360000186810601960314A136801331360FFF7BE
:10361000A1FD2F4B1B689D4203D2002436E00124FC
:1036200000E00024274B1B681B6823B94FF0FF32D2
:10363000274B1A602AE0234B1B68DB68DE6873683F
:103640009D4202D2224A136020E0371D3846FFF720
:103650006DFDB36A1BB106F11800FFF767FDF36A51
:10366000012202FA03F11B4802680A43026003EBDD
:1036700083039A00394618481044FFF731FDF26A77
:10368000164B1B68DB6A9A42C9D2CBE7134B1B6807
:10369000DB6A03EB83039A000F4B9B58012B00D985
:1036A00001240F4B1B6833B906E00E4A136801333F
:1036B0001360002400E001242046F8BD38070020F4
:1036C0006007002088060020A40600205C07002078
:1036D00064070020A8070020AC0600204407002053
:1036E000AC070020A806002038B5344B1B6843B94E
:1036F0004FF0500383F31188BFF36F8FBFF34F8FE9
:10370000FEE700F0B7FA2D4B1A68013A1A601B6801
:10371000002B4CD12A4B1B6833BB00244AE0294BB9
:10372000DB68DC6804F11800FFF700FD251D284662
:10373000FFF7FCFCE36A012202FA03F12248026867
:103740000A43026003EB83039A0029461F48104492
:10375000FFF7C6FCE26A1E4B1B68DB6A9A4204D381
:1037600001221C4B1A6000E00024164B1B68002B42
:10377000D5D10CB1FFF7EEFC174B1C6854B1FFF725
:1037800025FF10B10122134B1A60013CF7D1002232
:10379000114B1A600F4B1B685BB14FF080520F4BFF
:1037A0001A60BFF34F8FBFF36F8F012402E0002434
:1037B00000E0002400F080FA204638BD38070020E1
:1037C0004007002048070020A8070020AC06002082
:1037D00044070020AC070020A806002004ED00E00C
:1037E00010B5A8B10446104B1B6843B14FF050030D
:1037F00083F31188BFF36F8FBFF34F8FFEE7FFF79F
:10380000DDFE00212046FFF7DFFDFFF76DFF00E042
:10381000002038B94FF08052044B1A60BFF34F8F2D
:10382000BFF36F8F10BD00BF3807002004ED00E02C
:103830001F4B1B681BB101221E4B1A6070470022F0
:103840001C4B1A601C4B1B68B3FA83F3DBB2C3F149
:103850001F0303EB83018A0018498A5842B94FF0CD
:10386000500383F31188BFF36F8FBFF34F8FFEE7D1
:1038700030B4124D9900CA18900028444268546828
:10388000446019448A0008322A44944205D1606891
:1038900003EB83018A002A44506003EB83039A0000
:1038A000064B1A445368DA68054B1A6030BC7047FF
:1038B00038070020AC070020A8070020AC06002035
:1038C00044070020842801D003307047002070474F
:1038D00008B5FFF739FE002008BD00BF2DE9F04311
:1038E00087B004460F464569A5B1866996B1D0F800
:1038F0000480D0F80090B0F90800FFF7E3FF2269D8
:103900000296019500903B4649464046FFF7A8FDC8
:10391000059013E065682668D4F81080B4F90800B3
:10392000FFF7D0FF05AB019300903B461FFA88F2EA
:1039300031462846FFF7D4FD012801D1059800E063
:10394000002007B0BDE8F08308B508B90120FFE703
:10395000FFF746FF002008BD124A12F0070F07D0FC
:10396000D11D21F00701C1F5705313440A4601E04F
:103970004FF470530C480260002141601344083B2F
:1039800023F007030948036059601960991A5160D0
:103990001360074B1960074B19604FF00042064B4C
:1039A0001A607047C8070020BC070020B807002035
:1039B000CC430020B4070020C8430020134B00E094
:1039C00013461A688242FBD310B45C681919884206
:1039D00003D14168214459601846446801198A425C
:1039E0000CD10B4909688A4206D0526822444260D1
:1039F0001A681268026002E0016000E0026098420A
:103A000000D018605DF8044B704700BFBC07002071
:103A1000B807002070B50446FFF7D0FD3B4B1B688C
:103A20000BB9FFF799FF3A4B1B681C4257D194B171
:103A3000083414F0070F0ED024F00704083404F003
:103A4000070343B14FF0500383F31188BFF36F8F27
:103A5000BFF34F8FFEE7002C43D02E4B1B689C42D8
:103A600041D82D4B1D6801E02B4615466A689442EB
:103A700002D92A68002AF7D1244A1268954234D024
:103A80001E6808362A681A606B681B1B102B10D939
:103A9000281910F0070F08D04FF0500383F3118856
:103AA000BFF36F8FBFF34F8FFEE743606C60FFF78C
:103AB00085FF6A6817490B689B1A0B6017490968EC
:103AC0008B4201D215490B60114B1B681A436A6087
:103AD00000232B60124A13680133136006E00026AE
:103AE00004E0002602E0002600E00026FFF7FCFDCF
:103AF00016F0070F08D04FF0500383F31188BFF37F
:103B00006F8FBFF34F8FFEE7304670BDB8070020C0
:103B1000C8430020B4070020BC070020CC4300208D
:103B2000B0070020002838D038B50346A0F10805BA
:103B300050F8042C1949096812EA010408D14FF021
:103B4000500383F31188BFF36F8FBFF34F8FFEE7EE
:103B500050F8080C40B14FF0500383F31188BFF3C5
:103B60006F8FBFF34F8FFEE7B4B1A8B91C4622EAAE
:103B7000010243F8042CFFF721FD54F8043C084AE5
:103B800011680B4413602846FFF718FF054A1368B5
:103B900001331360FFF7A8FD38BD7047C84300200C
:103BA000B4070020C407002082B0002301930D4B0E
:103BB0001B68B3F1FF3F08D04FF0500383F3118827
:103BC000BFF36F8FBFF34F8FFEE74FF0500383F3C8
:103BD0001188BFF36F8FBFF34F8F019B002BFCD079
:103BE00002B070471400002008480068006880F3A5
:103BF00008884FF0000080F3148862B661B6BFF306
:103C00004F8FBFF36F8F00DF00BF000008ED00E0B3
:103C1000DFF80C00016841F470010160704700009A
:103C200088ED00E04FF0807340F8043C21F0010182
:103C300040F8081C054B40F80C3C40F8202C6FF075
:103C4000020340F8243C4438704700BFA93B0008F9
:103C5000074B19680868B0E8F04F80F30988BFF394
:103C60006F8F4FF0000080F311887047AFF3008032
:103C7000440700204FF0500383F31188BFF36F8F88
:103C8000BFF34F8F0A4A136801331360012B0DD124
:103C9000084B1B6813F0FF0F08D04FF0500383F35D
:103CA0001188BFF36F8FBFF34F8FFEE7704700BFE0
:103CB0001400002004ED00E0094B1B6843B94FF0ED
:103CC000500383F31188BFF36F8FBFF34F8FFEE76D
:103CD000013B034A13600BB983F31188704700BF9F
:103CE00014000020000000000000000000000000A0
:103CF000EFF30980BFF36F8F154B1A681EF0100F9A
:103D000008BF20ED108A20E9F04F10602DE909006E
:103D10004FF0500080F31188BFF34F8FBFF36F8FC8
:103D2000FFF786FD4FF0000080F3118809BC196889
:103D30000868B0E8F04F1EF0100F08BFB0EC108A12
:103D400080F30988BFF36F8F704700BFAFF3008027
:103D50004407002008B54FF0500383F31188BFF3E8
:103D60006F8FBFF34F8FFFF731FC18B14FF08052C8
:103D7000024B1A60002383F3118808BD04ED00E0B4
:103D8000084A0023136008490B60084B1B68084968
:103D9000A1FB03139B09013B06490B60072313603A
:103DA000704700BF10E000E018E000E008000020CD
:103DB000D34D621014E000E03A4B1A683A4B9A4235
:103DC00008D14FF0500383F31188BFF36F8FBFF317
:103DD0004F8FFEE7334B1A68344B9A4208D14FF0AD
:103DE000500383F31188BFF36F8FBFF34F8FFEE74C
:103DF00010B582B02E4B1A78D2B20192FF221A70FF
:103E00001B78DBB28DF803309DF8033003F05003CC
:103E1000284A13700722284B1A6009E0264A1368C3
:103E2000013B13609DF803305B00DBB28DF803307B
:103E30009DF8033013F0800FF0D11F4B1B68032B4C
:103E400008D04FF0500383F31188BFF36F8FBFF397
:103E50004F8FFEE71B0203F4E063174A1360019BD8
:103E6000DBB2134A1370154B1A6842F470021A60E1
:103E70001A6842F070421A60FFF782FF0024104B6C
:103E80001C60FFF7C5FE0F4A136843F04043136000
:103E9000FFF7AAFEFFF7CCFCFFF786FE204602B034
:103EA00010BD00BF00ED00E071C20F4170C20F41B4
:103EB00000E400E0D0430020D443002020ED00E0E7
:103EC0001400002034EF00E0DFF834D00D480E4934
:103ED0000E4A002302E0D458C4500433C4188C4264
:103EE000F9D30B4A0B4C002301E013600432A242C9
:103EF000FBD3FCF781FD00F011F8FCF71FFC7047C5
:103F00000000012000000020180000203C4B0008A9
:103F10001800002074450020FEE7000070B50E4B2D
:103F20000E4CE41AA41000251E46A54204D056F8F3
:103F3000253098470135F8E700F074F8084C094B34
:103F4000E41AA41000251E46A54204D056F82530D8
:103F500098470135F8E770BD344B0008344B000832
:103F6000384B0008344B0008931E222B10B50C462A
:103F700002D90020087010BD0A2A06D1002804DAF0
:103F80002D230B704042012100E00021214400F06C
:103F90000DF8204610BDFFF7E7BF024403469342E9
:103FA00002D003F8011BFAE770470000F0B51C4C83
:103FB0008BB003460F466D4604F1200E2068616801
:103FC0002E4603C6083474453546F7D12179317140
:103FD000911E2068306022294FF0000001D938700E
:103FE0001CE07D1EB3FBF2F40AAE02FB1433334433
:103FF000411C13F8283C05F8013F23460CB1084644
:10400000F0E77C543A18C11A8B4206DAF95C14784E
:10401000FC5402F801190133F5E738460BB0F0BD46
:10402000044B0008F8B500BFF8BC08BC9E467047BA
:0C403000F8B500BFF8BC08BC9E46704705
:10403C005840000831060008000000000000000095
:10404C008000000000000000000000006465666154
:10405C00756C745461736B0048656174696E672E7E
:10406C000000000048656174696E672E2E00000028
:10407C0048656174696E672E2E2E000041696D3A99
:10408C0000000000503A0000302E3100493A000088
:10409C00322E3300443A0000302E3800430000002A
:1040AC0000000000000000000102030406070809DC
:1040BC0000000000010203045F0003030404040673
:1040CC00050A1400FC0DFC0D0001F003D005742052
:1040DC000500086B2108D20C6A3C9808220B469A02
:1040EC006A889824A108002319B919EA498412A1F5
:1040FC00447408498412A1447408498412A14406EA
:10410C002417D809EA092D2A14994426111A2532A4
:10411C00894C425131CA002516C909EA8C24BAD0FF
:10412C00266239402C078825338A9E26002619D909
:10413C00096A4D2542895022248BA712A148429B23
:10414C00C844131249002708528C6A1C2400280DFD
:10415C00D50BEA89D444321D654205290ED50A6A6D
:10416C0008D584329D642235002A0E7839EA88B449
:10417C00910E219A480B002B0C7839EA89D50E3117
:10418C00B11A002C0834FBE94C2C002D0718696A75
:10419C001C022E07330C6A1C042F10C70AEA2A4A89
:1041AC008552A15428154AA5003011D809EA49694D
:1041BC00222D421E25226D541900310DD809EA49D1
:1041CC00873489587F3B043212D8096AD1441221B2
:1041DC0051AC2A1C4A95C587003316D8096AD144BC
:1041EC001221512C15CE017200912811C9480034AE
:1041FC0014D8096A87A5439A44A42293C82487A893
:10420C00580B003513D8096A1CC6BA8C46728058F4
:10421C004C94886424003615D8096AD14412614440
:10422C00AC321A49841C25221909003712D8096AA4
:10423C001CC2AA62A9582A968AA56229003815D8E8
:10424C00096AD1441221A34424A3892442468948F3
:10425C0046023914D8096AD144122147896845AC01
:10426C001294886424003A08830C6AD8A1063B0A8D
:10427C0094FBE9ACA34D2C003C0BD7096A47857A1B
:10428C00D673003D0A68396A1CE2381E023E0BD711
:10429C000A6A84F551AF61003F10D8096AD1441203
:1042AC0021A354B33A8258064017D8096AD1441254
:1042BC0021C97291502414098B481D2013550041BB
:1042CC000FD809EA4969222D42C64391470142158C
:1042DC00D8096AD4446A1299442611894C328990BF
:1042EC009BC4044310D8096AD1441221593F4A4453
:1042FC00321200440DD8096A98641221FF4D6202F3
:10430C00450DD8096A1CC63A9BC43A1F02460CD804
:10431C00096A1CC63A9BC47A064711D8096AD1446B
:10432C001221599391A34434A204480CD8096A0869
:10433C00F97828F25100490CD8096A1C6262FDB761
:10434C0043004A1AD909EA59E50039400E9003E4B2
:10435C000039400E10C9443215E910004B14D8092D
:10436C006A08D924328948534DA49B44261112055E
:10437C004C0AD8096A88F53F1F024D14D8096A08FF
:10438C008925D3C122A14828128A84C851004E1213
:10439C00D8096A086B35938922A148486E8D44016F
:1043AC004F0FD8096AD1441221FF2811C948005077
:1043BC000FD8096A986412216F1293586700511133
:1043CC00E8F969D14412217F91902822591D20527D
:1043DC0012D8096A986412216F129336894C2224E0
:1043EC000A5317D8096AD1441221590E9003E800D8
:1043FC0039404C9488642400540BD8096A1C6262BE
:10440C00FD6F00550DD8096A08F91F2522190900FE
:10441C00560FD8096A08394A447A23B28AD500570C
:10442C0012D8096A08F922A14828128AA4642A120F
:10443C00055813D8096A088912913622554AA4895D
:10444C00B4088902590FD8096A0889129136225585
:10445C00AC6F005A0FD8096A1CC2AACA5265A9B21D
:10446C00F8105B0AD60A6A1C82FA8F065C10C70A1F
:10447C006A48C552B1542C154BC552015D0AD60A77
:10448C006A18F51F0F015E0B4899EA496922895099
:10449C00005F0719F9691C04600734AB6AC8146122
:1044AC000E88096A956462C941C828A9046211D8AA
:1044BC00096A88F5321A49841C4B12C90800630D2D
:1044CC0088096A956464ED0099A802640ED8096A9B
:1044DC00EB69A254E42811AD08651088096AD1442F
:1044EC0012E1A12C07C8441500660DD809EAD14485
:1044FC003A0B8D627D046714C8C9E9546635894C42
:10450C00221395E4008B90516201680DD8096A88DA
:10451C00F5321A49847C14690CB809EA89E550B261
:10452C00BE1D026A0EF7CAE9AAC3A8FA4A639354DD
:10453C00006B11D8096A88F52611A9C88835919A9B
:10454C0044286C0AD809EA90F5BF1D026D1388093E
:10455C006A44540E13094542915024140945016EC6
:10456C000C88096A48462389908F026F0E88096A65
:10457C00D144122147894846027011C8C96948467E
:10458C0023899063492219893503710EC8C9694D75
:10459C00948A1C25A215B10E720C88096A4848230E
:1045AC008958AF00730F8809EA588474801D20263F
:1045BC004A2C00740DB8096A89158D623DC9280012
:1045CC00750B88096A08F92811AD08760E88096AF6
:1045DC00088912913622552C03771088096A08B97C
:1045EC004828128AE430114900781088096A082595
:1045FC002219552CA5892442017910C8C96908F9DA
:10460C002811AD888912918C047A09870A6A5C8515
:10461C007A3D7B0ED8096AD2C4BAD10162DD01049D
:10462C007C07D20C6A7C287D0FD8096AD00162DD28
:10463C000134B16E44007E0B38A9EA8C2812D204E6
:10464C000000000004FFFF00000000005F000302F8
:10465C000304030504050D00FE09FE0AFF015F02B9
:10466C00C404032005006E0721074943C721092212
:10467C00079B5A476209230E3D464F294906A5322E
:10468C0028A52401240F4D4257362851926D499488
:10469C000C5A04250D4D424FA474CC8A498B9400BE
:1046AC00260E45424F9644495689A22952022706A6
:1046BC00195BC700280BDB3E57122551B7280B2975
:1046CC000CDB3E47166551972889002A0A2D525754
:1046DC00A5B23445002B0A2D4A57180D5218012C3F
:1046EC00079B3E8F52022D060D52C7202E089B3E73
:1046FC004FB224002F0B4D42672DCC8A5918023033
:10470C000B4D425796D4BC25B508310B4D4257265C
:10471C0025614F8300320B4D42CF926961D67110E7
:10472C00330C4D42C72066B535D49205340F4D423B
:10473C005F984949949492410B1300350C4D42C734
:10474C00B1620A432D5900360D4D42CF9289E1904A
:10475C0064B66401370C4D42C72066611666610D64
:10476C00380D4D42CF92D99225B3250B00390D4D02
:10477C0042CF92D992210CB564013A0BC33E4FB291
:10478C00E448B224003B0AC33E4FB2E48852023CD8
:10479C00084D4267D6B5033D09254AC7A06383007F
:1047AC003E094D4247DAAD23003F0C4D42CF926992
:1047BC006156CCA108400D4D42CF92999644492C9C
:1047CC00E910410C4D425796D46CC390D90242105B
:1047DC004D42C71055A2244AA64A94448302430B67
:1047EC004D42CF9289BD250B0044124D42C7105546
:1047FC00A2244AA2244AA2241A1400450B4D42C7F3
:10480C00B13824617110460B4D42C7B13824612375
:10481C0000470C4D42CF92894D9B962C00480B4D76
:10482C004247E6360C995B004908CB42C712F56546
:10483C004A0B4D42D716F6124512004B0D4D42470E
:10484C00664A4A5A1255322D4C094D4247D88F832D
:10485C00004D0D4D4247A62D4BA2249A5B004E0DE8
:10486C004D4247364D4AA224D24D0B4F0A4D42CFF2
:10487C0092F92D5900500C4D42C79064B641091B5A
:10488C0001510A553ECF92F9A5B206520D4D42C7C1
:10489C009064B6412955322D530C4D42CF9289E983
:1048AC001A6AC90254094D42C72085FD0455094DA9
:1048BC004247E66FC902560D4D4247E69694922840
:1048CC00C9C208570D4D4247E62551122551BA0071
:1048DC00580E4D4247A625A524AB44494D0B590C07
:1048EC004D4247A625A5240B3B015A0C4D42C7202F
:1048FC00666156CCC2415B09DB3EC710F5A7015C73
:10490C000B4D4247988669310D035D09DB3EC7D4D8
:10491C009F86005E081D5A5796D4025F060D3EC74F
:10492C0020600612634714610B3542CF9A0C9AA48F
:10493C002801620C4D4247581C92CC6D5000630A02
:10494C003542CF9289B56401640B4D4267CBA0B957
:10495C00254300650C3542CF920D4398250B00661C
:10496C000C4D42975409B3210ADB00670C453ACF32
:10497C0092D99221D49205680A4D4247D862D2DC72
:10498C00026908C3424F2875196A0B543A5FACB5DB
:10499C004952A2006B0D4D4247D89494B424AA649A
:1049AC00016C08CB4287D42F036D0D354287D2A200
:1049BC00244AA2245A006E0935424762D2DC026FA7
:1049CC000A3542CF92B9250B00700C453AC790645A
:1049DC00B641098B00710A453ACFA0D992216C726D
:1049EC000935424762121B01730C3542CF92256A7E
:1049FC0092250B00740C45424F980D51D814290088
:104A0C007509354247E6495102760B354247664BEC
:104A1C004A491601770B35424766499444E90278B6
:104A2C000B35424796D4C22CA905790C453A47E67A
:104A3C00A428A1962C007A093542C7A0751C047BCA
:104A4C000B5D3E9F1436A961AB007C064943C7033E
:104A5C007D0B5D3E871AB64A6193067E091D5A4F3F
:104A6C00A424520200000004FFFF0000911400086F
:104A7C0009150008311500081815AF19FF000000C2
:104A8C001815AE19FF0000000001140A64643232DC
:104A9C0000127A00000428961008000080004000E4
:104AAC001815A115C819FF001815AE15D5168015C7
:104ABC00A8163F15D316001540158D161415201683
:104ACC000015A115C815DA1612158116CF15D916B1
:104ADC00F115DB1640152E15A415A619FF000000C4
:104AEC001815A015C019FF000006101600061016A8
:104AFC0049444C45000000003031323334353637F0
:104B0C0038396162636465666768696A6B6C6D6E7F
:104B1C006F707172737475767778797A0000000013
:084B2C0000B7FF7F010000004B
:044B3400C5010008AF
:044B3800A1010008CF
:104B3C0001000000680100000024F40010000000D7
:084B4C0001000000AAAAAAAAB8
:0400000508003EC9E8
:00000001FF
