:020000040800F2
:1000000000000120ED120008C5060008C90600081E
:10001000CD060008D1060008D50600080000000043
:10002000000000000000000000000000D9060008E9
:10003000DD06000800000000E1060008E5060008F3
:100040003D1300083D1300083D1300083D13000850
:100050003D1300083D1300083D1300083D13000840
:100060003D1300083D1300083D1300083D13000830
:100070003D1300083D1300083D1300083D13000820
:100080003D1300083D1300083D1300080000000068
:100090000000000000000000000000003D13000808
:1000A0003D1300083D1300083D1300083D130008F0
:1000B0003D1300083D1300083D1300083D130008E0
:1000C0003D1300083D1300083D1300083D130008D0
:1000D0003D1300083D1300083D1300080000000018
:1000E0003D1300083D1300083D1300080000000008
:1000F0000000000000000000000000003D130008A8
:10010000000000003D1300083D1300083D130008E7
:1001100000000000000000000000000000000000DF
:100120003D1300083D1300083D1300083D1300086F
:100130003D13000800000000000000000000000067
:100140000000000000000000000000003D13000857
:100150003D1300083D1300083D1300083D1300083F
:100160003D1300083D1300080000000000000000DF
:10017000000000000000000000000000000000007F
:10018000000000003D130008000000000000000017
:040190003D13000813
:1001940010B5054C237833B9044B13B10448AFF3BD
:1001A40000800123237010BD0C000020000000001B
:1001B4009C130008084B10B51BB108490848AFF35D
:1001C40000800848036803B910BD074B002BFBD01F
:1001D400BDE81040184700BF0000000010000020D8
:1001E4009C1300080C0000200000000053B94AB919
:1001F400002908BF00281CBF4FF0FF314FF0FF302B
:1002040000F07EB9ADF1080C6DE904CE00F006F8FB
:10021400DDF804E0DDE9022304B070472DE9F0477E
:100224008C460E460446089D002B50D18A42174640
:100234006CD9B2FA82FEBEF1000F0BD0CEF12004CD
:1002440020FA04F401FA0EF644EA060C02FA0EF758
:1002540000FA0EF44FEA1749220CBCFBF9F01FFA1E
:1002640087F809FB10C642EA064600FB08F3B342CE
:1002740009D9F61900F1FF3280F02281B34240F22D
:100284001F8102383E44F61AA2B2B6FBF9F309FB09
:10029400136642EA064403FB08F8A04509D9E419A9
:1002A40003F1FF3280F00A81A04540F20781023B4E
:1002B4003C44C8EB040443EA00400021002D62D012
:1002C40024FA0EF400232C606B60BDE8F0878B42A7
:1002D40007D9002D55D0002185E841000846BDE826
:1002E400F087B3FA83F1002940F09080B34202D33F
:1002F400824200F2F880841A66EB03060120B446B9
:10030400002D40D085E81010BDE8F08712B9012710
:10031400B7FBF2F7B7FA87FEBEF1000F35D1F31B36
:100324004FEA17481FFA87FC0121B3FBF8F0220CAF
:1003340008FB103642EA06460CFB00F3B34207D929
:10034400F61900F1FF3202D2B34200F2CE80104619
:10035400F61AA2B2B6FBF8F308FB136642EA0644A7
:100364000CFB03FCA44507D9E41903F1FF3202D2C4
:10037400A44500F2B5801346CCEB040443EA0040E4
:100384009CE729462846BDE8F087CEF1200106FA0D
:100394000EF307FA0EF720FA01F94FEA1748CE4098
:1003A40049EA0309B6FBF8FA4FEA194408FB1A664E
:1003B4001FFA87FC44EA06430AFB0CF29A4200FA4D
:1003C4000EF40AD9DB190AF1FF3180F087809A42D2
:1003D40040F28480AAF1020A3B449B1A1FFA89F96D
:1003E400B3FBF8F108FB113349EA034301FB0CF6B4
:1003F4009E4207D9DB1901F1FF326BD29E4269D9C3
:1004040002393B449B1B41EA0A418EE7C1F1200EAD
:1004140022FA0EF48B40234320FA0EF706FA01F475
:100424004FEA134C26FA0EF63C43B6FBFCF9270CB4
:100434000CFB19661FFA83F847EA064609FB08F71E
:10044400B74202FA01F200FA01FA08D9F61809F1E2
:10045400FF3041D2B7423FD9A9F102091E44F61B2D
:10046400A0B2B6FBFCF40CFB146640EA064704FB9E
:1004740008F8B84507D9FF1804F1FF3028D2B84569
:1004840026D9023C1F4444EA0940C8EB0707A0FBF5
:1004940002894F4544464E4614D329D065B3BAEB7E
:1004A400040367EB060707FA0EFECB40CF404EEA83
:1004B400030385E888000021BDE8F0871346F8E6C9
:1004C4001046E0E6B8EB020469EB03060138E5E701
:1004D4000446D8E7114695E78146C0E78A467CE79B
:1004E400023B3C4448E708460AE702383E442FE70B
:1004F400C245E7D33E46D1E72946BDE8F08700BFB1
:10050400704700BF30B58BB000240594069407945F
:100514000894099401941E4B1A6B42F004021A6366
:100524001A6B02F004020192019A02941A6B42F0CF
:1005340080021A631A6B02F080020292029A0394F8
:100544001A6B42F001021A631A6B02F00102039261
:10055400039A04941A6B42F002021A631B6B03F0B1
:1005640002030493049B0B4D22464FF4005128468A
:1005740000F010FD4FF400530593012306930794F4
:10058400089405A9284600F02FFC0BB030BD00BF2D
:10059400003802400008024072B6FEE708B50A4877
:1005A4000A4B03600A4B436000238360C3604FF42B
:1005B4008042026143618361C361036200F0BAFD5A
:1005C40008B1FFF7E9FF08BD2800002000540040EF
:1005D400A086010000B595B03022002108A800F0E3
:1005E400D3FE002303930493059306930793019387
:1005F400204A116C41F080511164126C02F0805257
:100604000192019A02931C4A136823F4404343F471
:1006140000431360136803F440430293029B0123D5
:1006240008934FF48033099302230E934FF480020E
:100634000F9219221092A822119212930423139359
:1006440008A800F0A3F808B1FFF7A6FF0F2303934F
:1006540002210491002305934FF4805206920793DC
:1006640003A800F0F7FA08B1FFF796FF15B05DF89C
:1006740004FB00BF003802400070004008B500F0E1
:100684000FFDFFF7A7FFFFF73DFFFFF787FF0B4CB9
:1006940000224FF40051204600F07CFC4FF47A70A5
:1006A40000F02AFD01224FF40051204600F072FCB4
:1006B4004FF47A7000F020FDE9E700BF0008024023
:1006C400FEE700BFFEE700BFFEE700BFFEE700BF96
:1006D400FEE700BF704700BF704700BF704700BF10
:1006E40008B500F0F7FC08BD82B0002100910B4B67
:1006F4005A6C42F480425A645A6C02F4804200926A
:10070400009A01911A6C42F080521A641B6C03F037
:1007140080530193019B02B0704700BF0038024030
:1007240030B589B00023039304930593069307938C
:100734000268134B9A4221D100250195114C236B79
:1007440043F002032363236B03F002030193019B31
:10075400C0230393122304930323069304230793D0
:1007640003A9094800F040FB0295236C43F40013ED
:100774002364236C03F400130293029B09B030BD7D
:10078400005400400038024000040240002800F0F9
:10079400DD8170B582B00446036813F0010F5AD0AE
:1007A400A04B9B6803F00C03042B0AD09D4B9B6861
:1007B40003F00C03082B0DD19A4B5B6813F4800FE4
:1007C40008D0984B1B6813F4003F44D06368002B97
:1007D40041D1BDE16368B3F5803F05D1914A136807
:1007E40043F48033136015E0B3F5A02F09D18D4B8A
:1007F4001A6842F480221A601A6842F480321A603D
:1008040008E0884B1A6822F480321A601A6822F4CD
:1008140080221A6063687BB100F068FC054605E03D
:1008240000F064FC401B642800F294817D4B1B683B
:1008340013F4003FF4D00EE000F058FC054605E048
:1008440000F054FC401B642800F28681754B1B6841
:1008540013F4003FF4D1236813F0020F50D0714B0E
:100864009B6813F00C0F0AD06E4B9B6803F00C03CB
:10087400082B16D16B4B5B6813F4800F11D1694BB5
:100884001B6813F0020F03D0E368012B40F066816C
:10089400644A136823F0F803216943EAC10313602F
:1008A4002EE0E368D3B101225F4B1A6000F01EFC16
:1008B400054605E000F01AFC401B022800F25081B6
:1008C400584B1B6813F0020FF4D0564A136823F0F8
:1008D400F803216943EAC103136011E00022524B7B
:1008E4001A6000F003FC054605E000F0FFFB401B26
:1008F400022800F237814B4B1B6813F0020FF4D12E
:10090400236813F0080F26D0636993B10122474B83
:100914001A6000F0EBFB054605E000F0E7FB401B26
:10092400022800F221813F4B5B6F13F0020FF4D0D9
:1009340011E000223D4B1A6000F0D8FB054605E0AB
:1009440000F0D4FB401B022800F21081354B5B6F92
:1009540013F0020FF4D1236813F0040F7DD0314B50
:100964001B6C13F0805F0DD1002301932D4B1A6C87
:1009740042F080521A641B6C03F080530193019B74
:10098400012500E000252A4B1B6813F4807F13D156
:10099400274A136843F48073136000F0A7FB0646EC
:1009A40005E000F0A3FB801B022800F2E180204B4D
:1009B4001B6813F4807FF4D0A368012B05D1194A76
:1009C400136F43F00103136714E0052B09D1154B92
:1009D4001A6F42F004021A671A6F42F001021A6792
:1009E40008E0104B1A6F22F001021A671A6F22F006
:1009F40004021A67A3688BB100F078FB064607E08F
:100A040000F074FB801B41F28833984200F2B280FC
:100A1400044B1B6F13F0020FF2D018E000F066FBDA
:100A240006460FE00038024000004742800E47426D
:100A34000070004000F05AFB801B41F2883398425A
:100A440000F29A80594B1B6F13F0020FF2D125B1BB
:100A5400564A136C23F080531364A369002B00F0EF
:100A64008D80524A926802F00C02082A48D0022B68
:100A740033D100224E4B1A6000F038FB054604E0E7
:100A840000F034FB401B02287AD8484B1B6813F053
:100A9400007FF5D1E269236A1343626A43EA821351
:100AA400A26A5208013A43EA0243E26A43EA026351
:100AB4003E4A536001223E4B1A6000F017FB044685
:100AC40004E000F013FB001B02285BD8374B1B68C3
:100AD40013F0007FF5D0002065E00022344B1A604B
:100AE40000F004FB044604E000F000FB001B0228B5
:100AF4004AD82E4B1B6813F0007FF5D1002052E03A
:100B0400012B43D0294A526842D002F48003E169A0
:100B14008B423FD102F03F03216A8B423CD1616A90
:100B240047F6C0731340B3EB811F37D102F4403151
:100B3400A36A5B08013BB1EB034F31D102F0706251
:100B4400E36AB2EB036F2DD001202CE00120704743
:100B5400012028E0032026E0032024E0012022E0F5
:100B6400032020E003201EE003201CE003201AE001
:100B7400032018E0032016E0032014E0002012E014
:100B8400032010E003200EE003200CE001200AE023
:100B9400012008E0012006E0012004E0012002E039
:100BA400012000E0002002B070BD00BF0038024008
:100BB4006000474238B5244B9B6803F00C03042BB8
:100BC4003FD0082B01D0214838BD1F4B5A6802F092
:100BD4003F025B6813F4800F0AD01B4B5968C1F3C2
:100BE400881100231A48A1FB0001FFF7FFFA1FE058
:100BF400154B5B68C3F38813DC000025690141EAE7
:100C0400D4616001041B61EB0505A90141EA94610B
:100C1400A001001B61EB0501C01841F100018B022A
:100C240043EA90538402204619460023FFF7DEFA74
:100C3400054B5B68C3F3014301335B00B0FBF3F086
:100C440038BD034838BD00BF003802400024F4001A
:100C540040787D01002800F0988070B50446524B1E
:100C64001B6803F007038B4208D2CBB24E4A1370C1
:100C7400136803F00703994240F08980236813F056
:100C8400020F17D013F0040F04D0484A936843F4BA
:100C9400E0539360236813F0080F04D0434A936829
:100CA40043F4604393604148836823F0F002A368EF
:100CB400134383600D46236813F0010F2FD062683D
:100CC400012A05D1394B1B6813F4003F0ED160E0B3
:100CD400931E012B05D8354B1B6813F0007F05D1FB
:100CE40059E0324B1B6813F0020F56D02F498B6822
:100CF40023F0030313438B6000F0F8F9064606E083
:100D040000F0F4F9801B41F28833984247D8274B0E
:100D14009B6803F00C036268B3EB820FF0D1224BA3
:100D24001B6803F007039D4207D2EAB21E4B1A70F8
:100D34001B6803F007039D4233D1236813F0040FAB
:100D440006D01A498B6823F4E052E36813438B609E
:100D5400236813F0080F07D0144A936823F4604300
:100D6400216943EAC1039360FFF724FF0F4B9B689B
:100D7400C3F303130E4AD35CD8400E4B18600E4BDA
:100D8400186800F067F9002070BD01207047012049
:100D940070BD012070BD012070BD012070BD032015
:100DA40070BD012070BD00BF003C0240003802400D
:100DB400B41300080800002000000020014B18684C
:100DC400704700BF0800002008B5FFF7F7FF044B89
:100DD4009B68C3F38223034AD35CD84008BD00BF99
:100DE40000380240C4130008F0B583B00023C3E008
:100DF40001229A400C6802EA0405AA4240F0BB8032
:100E04004C6804F00304013C012C15D887684FEAB0
:100E1400430E032606FA0EF627EA0606CC6804FA01
:100E24000EF434438460446824EA02024C68C4F338
:100E340000149C40224342604A6802F00302032AE1
:100E440009D0C6685F000324BC4026EA04048A680B
:100E5400BA402243C2604A6802F00302022A0FD158
:100E6400DC08083450F8247003F0070296000F22BF
:100E7400B24027EA02070A69B2403A4340F8242004
:100E840004685F000326BE4024EA06064A6802F0AE
:100E9400030404FA07F2324302604A6812F4403F42
:100EA40069D000220192374A546C44F4804454645B
:100EB400526C02F480420192019A9E08B41C324A98
:100EC40052F8244003F0030292000F27974024EACB
:100ED40007072E4CA04211D004F58064A0420FD025
:100EE40004F58064A0420DD004F58064A0420BD0C8
:100EF40004F58064A04209D1042408E0002406E03B
:100F0400012404E0022402E0032400E0072404FA9C
:100F140002F23A4302361C4C44F826201C4A146858
:100F2400EA4304EA02064F6817F4803F01D045EA19
:100F34000406174C2660646802EA04064F6817F436
:100F4400003F01D045EA0406114C6660A46802EA39
:100F540004064F6817F4801F01D045EA04060C4CC0
:100F6400A660E46822404E6816F4001F01D045EAEA
:100F74000402074CE26001330F2B7FF639AF03B054
:100F8400F0BD00BF003802400038014000000240BC
:100F9400003C01400AB181617047090481617047D6
:100FA400074AD36823F4E0631B041B0C000200F41B
:100FB400E060184340F0BF6040F40030D0607047F8
:100FC40000ED00E030B4164BDB68C3F30223C3F139
:100FD4000704042C28BF04241D1D062D01D9DD1E81
:100FE40000E00025012303FA04F4013C2140A94058
:100FF400AB40013B1A400A43002808DB1201D2B27D
:1010040000F1604000F5614080F8002305E000F045
:101014000F001201D2B2034B1A5430BC704700BF08
:1010240000ED00E014ED00E00138B0F1807F0AD259
:10103400064B5860F021064A82F82310002098607D
:1010440007221A6070470120704700BF10E000E0DB
:1010540000ED00E010B504460E4B18784FF47A7397
:10106400B3FBF0F30C4A1068B0FBF3F0FFF7DCFFBE
:1010740058B90F2C0BD8002221464FF0FF30FFF750
:10108400A1FF064B1C60002010BD012010BD0120F3
:1010940010BD00BF04000020080000200000002054
:1010A40008B50B4B1A6842F400721A601A6842F4CD
:1010B40080621A601A6842F480721A600320FFF793
:1010C4006FFF0F20FFF7C6FFFFF70EFB002008BDE0
:1010D400003C0240034A1368034909780B44136037
:1010E400704700BF7C00002004000020014B1868FA
:1010F400704700BF7C00002038B50446FFF7F6FFB8
:101104000546B4F1FF3F02D0044B1B781C44FFF7A3
:10111400EDFF401B8442FAD838BD00BF0400002014
:10112400034AD2F8883043F47003C2F88830704719
:1011340000ED00E0002800F0C980F8B5044690F8FE
:101144003D3013F0FF0F04D1002380F83C30FFF74B
:10115400E7FA242384F83D302268136823F001035E
:1011640013602268136843F4004313602268136811
:1011740023F400431360FFF727FE6268554B9A423D
:1011840005D8554B98428CBF0023012304E0534BF0
:1011940098428CBF00230123002B40F09980504BD0
:1011A400A3FB00239B0C21684A6822F03F021A43E8
:1011B4004A6025682A6A22F03F02666845498E42E1
:1011C40001D8013308E04FF4967101FB03F345495C
:1011D400A1FB03139B09013313432B622568E969BF
:1011E40021F44F4121F0FF0166683A4B9E420AD830
:1011F400431E7000B3FBF0F00130C0F30B00042871
:1012040038BF042035E0A3685BB9421E06EB4607ED
:10121400B2FBF7F20132C2F30B02B2FA82F25209C4
:101224000CE0421E06EB860707EB8707B2FBF7F2DA
:101234000132C2F30B02B2FA82F25209C2B953B9B3
:10124400421E06EB4600B2FBF0F00130C0F30B0384
:1012540043F400400DE0421E06EB860606EB8606CC
:10126400B2FBF6F30133C3F30B0343F4404000E055
:1012740001200843E86121680B6823F0C002E0699B
:10128400236A034313430B6021688B6823F40342EE
:1012940022F0FF022069E368034313438B60216853
:1012A400CB6823F0FF026069A36903431343CB6057
:1012B4002268136843F00103136000202064202394
:1012C40084F83D30206384F83E00F8BD0120704767
:1012D4000120F8BDA08601007F841E00FF083D00A8
:1012E40083DE1B43D34D6210DFF834D00D480E4922
:1012F4000E4A002302E0D458C4500433C4188C426C
:10130400F9D30B4A0B4C002301E013600432A242D0
:10131400FBD3FFF705FF00F011F8FFF7AFF97047B3
:1013240000000120000000200C000020DC13000855
:101334000C00002080000020FEE7000070B50E4B7A
:101344000E4CE41AA41000251E46A54204D056F8FB
:10135400253098470135F8E700F01EF8084C094B92
:10136400E41AA41000251E46A54204D056F82530E0
:1013740098470135F8E770BDD4130008D41300086A
:10138400D8130008D413000802440346934202D041
:1013940003F8011BFAE77047F8B500BFF8BC08BCB6
:1013A4009E467047F8B500BFF8BC08BC9E4670471F
:1013B4000000000000000000010203040607080901
:0813C400000000000102030417
:0813CC0054EEFF7F0100000058
:0413D400B901000853
:0413D8009501000873
:0C13DC0010000000010000000024F400DC
:04000005080012EDF0
:00000001FF
